{
  "_format": "hh-sol-artifact-1",
  "contractName": "Pledge08Up",
  "sourceName": "contracts/Pledge08Up.sol",
  "abi": [
    {
      "anonymous": false,
      "inputs": [
        {
          "indexed": true,
          "internalType": "address",
          "name": "owner",
          "type": "address"
        },
        {
          "indexed": true,
          "internalType": "address",
          "name": "spender",
          "type": "address"
        },
        {
          "indexed": false,
          "internalType": "uint256",
          "name": "value",
          "type": "uint256"
        }
      ],
      "name": "Approval",
      "type": "event"
    },
    {
      "anonymous": false,
      "inputs": [
        {
          "indexed": false,
          "internalType": "address",
          "name": "user",
          "type": "address"
        },
        {
          "indexed": false,
          "internalType": "bool",
          "name": "free",
          "type": "bool"
        }
      ],
      "name": "FreeFromFees",
      "type": "event"
    },
    {
      "anonymous": false,
      "inputs": [
        {
          "indexed": true,
          "internalType": "address",
          "name": "previousOwner",
          "type": "address"
        },
        {
          "indexed": true,
          "internalType": "address",
          "name": "newOwner",
          "type": "address"
        }
      ],
      "name": "OwnershipTransferred",
      "type": "event"
    },
    {
      "anonymous": false,
      "inputs": [
        {
          "components": [
            {
              "internalType": "uint256",
              "name": "marketing",
              "type": "uint256"
            },
            {
              "internalType": "uint256",
              "name": "charity",
              "type": "uint256"
            },
            {
              "internalType": "uint256",
              "name": "liquidity",
              "type": "uint256"
            },
            {
              "internalType": "uint256",
              "name": "lottery",
              "type": "uint256"
            }
          ],
          "indexed": false,
          "internalType": "struct Pledge07Up.Fees",
          "name": "fees",
          "type": "tuple"
        },
        {
          "indexed": false,
          "internalType": "bool",
          "name": "lowerNotHigher",
          "type": "bool"
        }
      ],
      "name": "SetFees",
      "type": "event"
    },
    {
      "anonymous": false,
      "inputs": [
        {
          "indexed": false,
          "internalType": "uint256",
          "name": "tokenSwapped",
          "type": "uint256"
        },
        {
          "indexed": false,
          "internalType": "uint256",
          "name": "etherReceived",
          "type": "uint256"
        },
        {
          "indexed": false,
          "internalType": "uint256",
          "name": "tokenLiquified",
          "type": "uint256"
        },
        {
          "indexed": false,
          "internalType": "uint256",
          "name": "etherLiquified",
          "type": "uint256"
        }
      ],
      "name": "SwapAndLiquify",
      "type": "event"
    },
    {
      "anonymous": false,
      "inputs": [
        {
          "indexed": true,
          "internalType": "address",
          "name": "from",
          "type": "address"
        },
        {
          "indexed": true,
          "internalType": "address",
          "name": "to",
          "type": "address"
        },
        {
          "indexed": false,
          "internalType": "uint256",
          "name": "value",
          "type": "uint256"
        }
      ],
      "name": "Transfer",
      "type": "event"
    },
    {
      "inputs": [],
      "name": "DECIMALS",
      "outputs": [
        {
          "internalType": "uint8",
          "name": "",
          "type": "uint8"
        }
      ],
      "stateMutability": "view",
      "type": "function"
    },
    {
      "inputs": [],
      "name": "FEE_HUNDRED_PERCENT",
      "outputs": [
        {
          "internalType": "uint256",
          "name": "",
          "type": "uint256"
        }
      ],
      "stateMutability": "view",
      "type": "function"
    },
    {
      "inputs": [],
      "name": "FEE_MAGNIFIER",
      "outputs": [
        {
          "internalType": "uint256",
          "name": "",
          "type": "uint256"
        }
      ],
      "stateMutability": "view",
      "type": "function"
    },
    {
      "inputs": [],
      "name": "INITIAL_GENERAL_CHARITY",
      "outputs": [
        {
          "internalType": "address",
          "name": "",
          "type": "address"
        }
      ],
      "stateMutability": "view",
      "type": "function"
    },
    {
      "inputs": [],
      "name": "INITIAL_HIGHER_CHARITY_FEE",
      "outputs": [
        {
          "internalType": "uint256",
          "name": "",
          "type": "uint256"
        }
      ],
      "stateMutability": "view",
      "type": "function"
    },
    {
      "inputs": [],
      "name": "INITIAL_HIGHER_LIQUIDITY_FEE",
      "outputs": [
        {
          "internalType": "uint256",
          "name": "",
          "type": "uint256"
        }
      ],
      "stateMutability": "view",
      "type": "function"
    },
    {
      "inputs": [],
      "name": "INITIAL_HIGHER_LOTTERY_FEE",
      "outputs": [
        {
          "internalType": "uint256",
          "name": "",
          "type": "uint256"
        }
      ],
      "stateMutability": "view",
      "type": "function"
    },
    {
      "inputs": [],
      "name": "INITIAL_HIGHER_MARKETING_FEE",
      "outputs": [
        {
          "internalType": "uint256",
          "name": "",
          "type": "uint256"
        }
      ],
      "stateMutability": "view",
      "type": "function"
    },
    {
      "inputs": [],
      "name": "INITIAL_LOWER_CHARITY_FEE",
      "outputs": [
        {
          "internalType": "uint256",
          "name": "",
          "type": "uint256"
        }
      ],
      "stateMutability": "view",
      "type": "function"
    },
    {
      "inputs": [],
      "name": "INITIAL_LOWER_LIQUIDITY_FEE",
      "outputs": [
        {
          "internalType": "uint256",
          "name": "",
          "type": "uint256"
        }
      ],
      "stateMutability": "view",
      "type": "function"
    },
    {
      "inputs": [],
      "name": "INITIAL_LOWER_LOTTERY_FEE",
      "outputs": [
        {
          "internalType": "uint256",
          "name": "",
          "type": "uint256"
        }
      ],
      "stateMutability": "view",
      "type": "function"
    },
    {
      "inputs": [],
      "name": "INITIAL_LOWER_MARKETING_FEE",
      "outputs": [
        {
          "internalType": "uint256",
          "name": "",
          "type": "uint256"
        }
      ],
      "stateMutability": "view",
      "type": "function"
    },
    {
      "inputs": [],
      "name": "INITIAL_SUPPLY",
      "outputs": [
        {
          "internalType": "uint256",
          "name": "",
          "type": "uint256"
        }
      ],
      "stateMutability": "view",
      "type": "function"
    },
    {
      "inputs": [],
      "name": "LIQUIDITY_QUANTUM",
      "outputs": [
        {
          "internalType": "uint256",
          "name": "",
          "type": "uint256"
        }
      ],
      "stateMutability": "view",
      "type": "function"
    },
    {
      "inputs": [],
      "name": "MAX_TRANSFER_AMOUNT",
      "outputs": [
        {
          "internalType": "uint256",
          "name": "",
          "type": "uint256"
        }
      ],
      "stateMutability": "view",
      "type": "function"
    },
    {
      "inputs": [],
      "name": "MIN_HODL_TIME_SECONDS",
      "outputs": [
        {
          "internalType": "uint256",
          "name": "",
          "type": "uint256"
        }
      ],
      "stateMutability": "view",
      "type": "function"
    },
    {
      "inputs": [],
      "name": "__PledgeV8_init",
      "outputs": [],
      "stateMutability": "nonpayable",
      "type": "function"
    },
    {
      "inputs": [],
      "name": "__PledgeV8_init_unchained",
      "outputs": [],
      "stateMutability": "nonpayable",
      "type": "function"
    },
    {
      "inputs": [],
      "name": "__Pledge_init",
      "outputs": [],
      "stateMutability": "nonpayable",
      "type": "function"
    },
    {
      "inputs": [],
      "name": "__Pledge_init_unchained",
      "outputs": [],
      "stateMutability": "nonpayable",
      "type": "function"
    },
    {
      "inputs": [
        {
          "internalType": "address",
          "name": "holder",
          "type": "address"
        },
        {
          "internalType": "uint256",
          "name": "daysAgo",
          "type": "uint256"
        }
      ],
      "name": "___test___setLastTransferTime",
      "outputs": [],
      "stateMutability": "nonpayable",
      "type": "function"
    },
    {
      "inputs": [
        {
          "internalType": "address",
          "name": "_charityAddress",
          "type": "address"
        }
      ],
      "name": "addCharityAddress",
      "outputs": [],
      "stateMutability": "nonpayable",
      "type": "function"
    },
    {
      "inputs": [
        {
          "internalType": "address",
          "name": "owner",
          "type": "address"
        },
        {
          "internalType": "address",
          "name": "spender",
          "type": "address"
        }
      ],
      "name": "allowance",
      "outputs": [
        {
          "internalType": "uint256",
          "name": "",
          "type": "uint256"
        }
      ],
      "stateMutability": "view",
      "type": "function"
    },
    {
      "inputs": [
        {
          "internalType": "address",
          "name": "spender",
          "type": "address"
        },
        {
          "internalType": "uint256",
          "name": "amount",
          "type": "uint256"
        }
      ],
      "name": "approve",
      "outputs": [
        {
          "internalType": "bool",
          "name": "",
          "type": "bool"
        }
      ],
      "stateMutability": "nonpayable",
      "type": "function"
    },
    {
      "inputs": [],
      "name": "autoliquify",
      "outputs": [
        {
          "internalType": "bool",
          "name": "",
          "type": "bool"
        }
      ],
      "stateMutability": "view",
      "type": "function"
    },
    {
      "inputs": [
        {
          "internalType": "address",
          "name": "account",
          "type": "address"
        }
      ],
      "name": "balanceOf",
      "outputs": [
        {
          "internalType": "uint256",
          "name": "",
          "type": "uint256"
        }
      ],
      "stateMutability": "view",
      "type": "function"
    },
    {
      "inputs": [],
      "name": "beneficiaries",
      "outputs": [
        {
          "internalType": "address",
          "name": "marketing",
          "type": "address"
        },
        {
          "internalType": "address",
          "name": "charity",
          "type": "address"
        },
        {
          "internalType": "address",
          "name": "liquidity",
          "type": "address"
        },
        {
          "internalType": "address",
          "name": "lottery",
          "type": "address"
        }
      ],
      "stateMutability": "view",
      "type": "function"
    },
    {
      "inputs": [],
      "name": "beneficiariesSet",
      "outputs": [
        {
          "internalType": "bool",
          "name": "",
          "type": "bool"
        }
      ],
      "stateMutability": "view",
      "type": "function"
    },
    {
      "inputs": [
        {
          "internalType": "uint256",
          "name": "amount",
          "type": "uint256"
        }
      ],
      "name": "burn",
      "outputs": [],
      "stateMutability": "nonpayable",
      "type": "function"
    },
    {
      "inputs": [
        {
          "internalType": "address",
          "name": "account",
          "type": "address"
        },
        {
          "internalType": "uint256",
          "name": "amount",
          "type": "uint256"
        }
      ],
      "name": "burnFrom",
      "outputs": [],
      "stateMutability": "nonpayable",
      "type": "function"
    },
    {
      "inputs": [
        {
          "internalType": "address",
          "name": "_oldCharityAddress",
          "type": "address"
        },
        {
          "internalType": "address",
          "name": "_newCharityAddress",
          "type": "address"
        }
      ],
      "name": "changeCharityAddress",
      "outputs": [],
      "stateMutability": "nonpayable",
      "type": "function"
    },
    {
      "inputs": [
        {
          "internalType": "address",
          "name": "newOperator",
          "type": "address"
        }
      ],
      "name": "changeOperator",
      "outputs": [],
      "stateMutability": "nonpayable",
      "type": "function"
    },
    {
      "inputs": [
        {
          "internalType": "address",
          "name": "_routerAddress",
          "type": "address"
        }
      ],
      "name": "createLiquidityPool",
      "outputs": [],
      "stateMutability": "nonpayable",
      "type": "function"
    },
    {
      "inputs": [],
      "name": "decimals",
      "outputs": [
        {
          "internalType": "uint8",
          "name": "",
          "type": "uint8"
        }
      ],
      "stateMutability": "view",
      "type": "function"
    },
    {
      "inputs": [
        {
          "internalType": "address",
          "name": "spender",
          "type": "address"
        },
        {
          "internalType": "uint256",
          "name": "subtractedValue",
          "type": "uint256"
        }
      ],
      "name": "decreaseAllowance",
      "outputs": [
        {
          "internalType": "bool",
          "name": "",
          "type": "bool"
        }
      ],
      "stateMutability": "nonpayable",
      "type": "function"
    },
    {
      "inputs": [],
      "name": "feeBalances",
      "outputs": [
        {
          "components": [
            {
              "internalType": "uint256",
              "name": "marketing",
              "type": "uint256"
            },
            {
              "internalType": "uint256",
              "name": "charity",
              "type": "uint256"
            },
            {
              "internalType": "uint256",
              "name": "liquidity",
              "type": "uint256"
            },
            {
              "internalType": "uint256",
              "name": "lottery",
              "type": "uint256"
            }
          ],
          "internalType": "struct Pledge07Up.FeeBalances",
          "name": "balances",
          "type": "tuple"
        }
      ],
      "stateMutability": "view",
      "type": "function"
    },
    {
      "inputs": [
        {
          "internalType": "address",
          "name": "user",
          "type": "address"
        },
        {
          "internalType": "bool",
          "name": "free",
          "type": "bool"
        }
      ],
      "name": "freeFromFees",
      "outputs": [],
      "stateMutability": "nonpayable",
      "type": "function"
    },
    {
      "inputs": [],
      "name": "generalCharityAddress",
      "outputs": [
        {
          "internalType": "address",
          "name": "",
          "type": "address"
        }
      ],
      "stateMutability": "view",
      "type": "function"
    },
    {
      "inputs": [],
      "name": "getOwner",
      "outputs": [
        {
          "internalType": "address",
          "name": "",
          "type": "address"
        }
      ],
      "stateMutability": "view",
      "type": "function"
    },
    {
      "inputs": [],
      "name": "higherFees",
      "outputs": [
        {
          "internalType": "uint256",
          "name": "marketing",
          "type": "uint256"
        },
        {
          "internalType": "uint256",
          "name": "charity",
          "type": "uint256"
        },
        {
          "internalType": "uint256",
          "name": "liquidity",
          "type": "uint256"
        },
        {
          "internalType": "uint256",
          "name": "lottery",
          "type": "uint256"
        }
      ],
      "stateMutability": "view",
      "type": "function"
    },
    {
      "inputs": [
        {
          "internalType": "address",
          "name": "spender",
          "type": "address"
        },
        {
          "internalType": "uint256",
          "name": "addedValue",
          "type": "uint256"
        }
      ],
      "name": "increaseAllowance",
      "outputs": [
        {
          "internalType": "bool",
          "name": "",
          "type": "bool"
        }
      ],
      "stateMutability": "nonpayable",
      "type": "function"
    },
    {
      "inputs": [],
      "name": "initialHigherFees",
      "outputs": [
        {
          "internalType": "uint256",
          "name": "marketing",
          "type": "uint256"
        },
        {
          "internalType": "uint256",
          "name": "charity",
          "type": "uint256"
        },
        {
          "internalType": "uint256",
          "name": "liquidity",
          "type": "uint256"
        },
        {
          "internalType": "uint256",
          "name": "lottery",
          "type": "uint256"
        }
      ],
      "stateMutability": "view",
      "type": "function"
    },
    {
      "inputs": [],
      "name": "initialLowerFees",
      "outputs": [
        {
          "internalType": "uint256",
          "name": "marketing",
          "type": "uint256"
        },
        {
          "internalType": "uint256",
          "name": "charity",
          "type": "uint256"
        },
        {
          "internalType": "uint256",
          "name": "liquidity",
          "type": "uint256"
        },
        {
          "internalType": "uint256",
          "name": "lottery",
          "type": "uint256"
        }
      ],
      "stateMutability": "view",
      "type": "function"
    },
    {
      "inputs": [],
      "name": "initialize",
      "outputs": [],
      "stateMutability": "nonpayable",
      "type": "function"
    },
    {
      "inputs": [
        {
          "internalType": "address",
          "name": "",
          "type": "address"
        }
      ],
      "name": "isCharityAddress",
      "outputs": [
        {
          "internalType": "bool",
          "name": "",
          "type": "bool"
        }
      ],
      "stateMutability": "view",
      "type": "function"
    },
    {
      "inputs": [
        {
          "internalType": "address",
          "name": "",
          "type": "address"
        }
      ],
      "name": "isFeeFree",
      "outputs": [
        {
          "internalType": "bool",
          "name": "",
          "type": "bool"
        }
      ],
      "stateMutability": "view",
      "type": "function"
    },
    {
      "inputs": [
        {
          "internalType": "address",
          "name": "",
          "type": "address"
        }
      ],
      "name": "lastTransferTime",
      "outputs": [
        {
          "internalType": "uint256",
          "name": "",
          "type": "uint256"
        }
      ],
      "stateMutability": "view",
      "type": "function"
    },
    {
      "inputs": [],
      "name": "liquidityQuantum",
      "outputs": [
        {
          "internalType": "uint256",
          "name": "",
          "type": "uint256"
        }
      ],
      "stateMutability": "view",
      "type": "function"
    },
    {
      "inputs": [],
      "name": "liquify",
      "outputs": [],
      "stateMutability": "nonpayable",
      "type": "function"
    },
    {
      "inputs": [],
      "name": "lowerFees",
      "outputs": [
        {
          "internalType": "uint256",
          "name": "marketing",
          "type": "uint256"
        },
        {
          "internalType": "uint256",
          "name": "charity",
          "type": "uint256"
        },
        {
          "internalType": "uint256",
          "name": "liquidity",
          "type": "uint256"
        },
        {
          "internalType": "uint256",
          "name": "lottery",
          "type": "uint256"
        }
      ],
      "stateMutability": "view",
      "type": "function"
    },
    {
      "inputs": [],
      "name": "maxTransferAmount",
      "outputs": [
        {
          "internalType": "uint256",
          "name": "",
          "type": "uint256"
        }
      ],
      "stateMutability": "view",
      "type": "function"
    },
    {
      "inputs": [],
      "name": "minHoldTimeSec",
      "outputs": [
        {
          "internalType": "uint256",
          "name": "",
          "type": "uint256"
        }
      ],
      "stateMutability": "view",
      "type": "function"
    },
    {
      "inputs": [],
      "name": "name",
      "outputs": [
        {
          "internalType": "string",
          "name": "",
          "type": "string"
        }
      ],
      "stateMutability": "view",
      "type": "function"
    },
    {
      "inputs": [],
      "name": "operator",
      "outputs": [
        {
          "internalType": "address",
          "name": "",
          "type": "address"
        }
      ],
      "stateMutability": "view",
      "type": "function"
    },
    {
      "inputs": [],
      "name": "owner",
      "outputs": [
        {
          "internalType": "address",
          "name": "",
          "type": "address"
        }
      ],
      "stateMutability": "view",
      "type": "function"
    },
    {
      "inputs": [],
      "name": "pancakePair",
      "outputs": [
        {
          "internalType": "address",
          "name": "",
          "type": "address"
        }
      ],
      "stateMutability": "view",
      "type": "function"
    },
    {
      "inputs": [],
      "name": "pancakeRouter",
      "outputs": [
        {
          "internalType": "contract IPancakeRouter02",
          "name": "",
          "type": "address"
        }
      ],
      "stateMutability": "view",
      "type": "function"
    },
    {
      "inputs": [
        {
          "internalType": "address",
          "name": "_charityAddress",
          "type": "address"
        }
      ],
      "name": "preferCharityAddress",
      "outputs": [],
      "stateMutability": "nonpayable",
      "type": "function"
    },
    {
      "inputs": [
        {
          "internalType": "address",
          "name": "",
          "type": "address"
        }
      ],
      "name": "preferredCharityAddress",
      "outputs": [
        {
          "internalType": "address",
          "name": "",
          "type": "address"
        }
      ],
      "stateMutability": "view",
      "type": "function"
    },
    {
      "inputs": [
        {
          "internalType": "address",
          "name": "_charityAddress",
          "type": "address"
        }
      ],
      "name": "removeCharityAddress",
      "outputs": [],
      "stateMutability": "nonpayable",
      "type": "function"
    },
    {
      "inputs": [],
      "name": "renounceOwnership",
      "outputs": [],
      "stateMutability": "nonpayable",
      "type": "function"
    },
    {
      "inputs": [
        {
          "internalType": "bool",
          "name": "lowerNotHigher",
          "type": "bool"
        }
      ],
      "name": "restoreFees",
      "outputs": [],
      "stateMutability": "nonpayable",
      "type": "function"
    },
    {
      "inputs": [
        {
          "components": [
            {
              "internalType": "address",
              "name": "marketing",
              "type": "address"
            },
            {
              "internalType": "address",
              "name": "charity",
              "type": "address"
            },
            {
              "internalType": "address",
              "name": "liquidity",
              "type": "address"
            },
            {
              "internalType": "address",
              "name": "lottery",
              "type": "address"
            }
          ],
          "internalType": "struct Pledge07Up.Beneficiaries",
          "name": "_beneficiaries",
          "type": "tuple"
        }
      ],
      "name": "setBeneficiaries",
      "outputs": [],
      "stateMutability": "nonpayable",
      "type": "function"
    },
    {
      "inputs": [
        {
          "components": [
            {
              "internalType": "uint256",
              "name": "marketing",
              "type": "uint256"
            },
            {
              "internalType": "uint256",
              "name": "charity",
              "type": "uint256"
            },
            {
              "internalType": "uint256",
              "name": "liquidity",
              "type": "uint256"
            },
            {
              "internalType": "uint256",
              "name": "lottery",
              "type": "uint256"
            }
          ],
          "internalType": "struct Pledge07Up.Fees",
          "name": "fees",
          "type": "tuple"
        },
        {
          "internalType": "bool",
          "name": "lowerNotHigher",
          "type": "bool"
        }
      ],
      "name": "setFees",
      "outputs": [],
      "stateMutability": "nonpayable",
      "type": "function"
    },
    {
      "inputs": [
        {
          "internalType": "address",
          "name": "_charityAddress",
          "type": "address"
        }
      ],
      "name": "setGeneralCharityAddress",
      "outputs": [],
      "stateMutability": "nonpayable",
      "type": "function"
    },
    {
      "inputs": [
        {
          "internalType": "uint256",
          "name": "_maxTransferAmount",
          "type": "uint256"
        }
      ],
      "name": "setMaxTransferAmount",
      "outputs": [],
      "stateMutability": "nonpayable",
      "type": "function"
    },
    {
      "inputs": [
        {
          "internalType": "uint256",
          "name": "_minHoldTimeSec",
          "type": "uint256"
        }
      ],
      "name": "setMinHoldTimeSec",
      "outputs": [],
      "stateMutability": "nonpayable",
      "type": "function"
    },
    {
      "inputs": [],
      "name": "symbol",
      "outputs": [
        {
          "internalType": "string",
          "name": "",
          "type": "string"
        }
      ],
      "stateMutability": "view",
      "type": "function"
    },
    {
      "inputs": [
        {
          "internalType": "bool",
          "name": "_autoLiquify",
          "type": "bool"
        }
      ],
      "name": "toLiquify",
      "outputs": [],
      "stateMutability": "nonpayable",
      "type": "function"
    },
    {
      "inputs": [],
      "name": "totalSupply",
      "outputs": [
        {
          "internalType": "uint256",
          "name": "",
          "type": "uint256"
        }
      ],
      "stateMutability": "view",
      "type": "function"
    },
    {
      "inputs": [
        {
          "internalType": "address",
          "name": "recipient",
          "type": "address"
        },
        {
          "internalType": "uint256",
          "name": "amount",
          "type": "uint256"
        }
      ],
      "name": "transfer",
      "outputs": [
        {
          "internalType": "bool",
          "name": "",
          "type": "bool"
        }
      ],
      "stateMutability": "nonpayable",
      "type": "function"
    },
    {
      "inputs": [
        {
          "internalType": "address",
          "name": "sender",
          "type": "address"
        },
        {
          "internalType": "address",
          "name": "recipient",
          "type": "address"
        },
        {
          "internalType": "uint256",
          "name": "amount",
          "type": "uint256"
        }
      ],
      "name": "transferFrom",
      "outputs": [
        {
          "internalType": "bool",
          "name": "",
          "type": "bool"
        }
      ],
      "stateMutability": "nonpayable",
      "type": "function"
    },
    {
      "inputs": [
        {
          "internalType": "address",
          "name": "newOwner",
          "type": "address"
        }
      ],
      "name": "transferOwnership",
      "outputs": [],
      "stateMutability": "nonpayable",
      "type": "function"
    },
    {
      "stateMutability": "payable",
      "type": "receive"
    }
  ],
  "bytecode": "0x608060405234801561001057600080fd5b5061436f806100206000396000f3fe60806040526004361061042a5760003560e01c8063715018a611610229578063a9059cbb1161012e578063c0b9cd6d116100b6578063dd62ed3e1161007a578063dd62ed3e14610b02578063f2fde38b14610b22578063f5896bc714610b42578063fc1b311314610b62578063ff9d6d8614610b7757610431565b8063c0b9cd6d14610aa3578063c21ebd0714610ac3578063cb4c5f1714610ad8578063cb9598c314610aed578063d9e197bb1461098557610431565b8063b562f3a7116100fd578063b562f3a714610a24578063b8c9d25c14610a39578063bb5d6e5614610a4e578063be1d6e7e14610a63578063be3cafd214610a8357610431565b8063a9059cbb146109da578063a9e75723146109fa578063ae4c438e146107c8578063b21f50a114610a0f57610431565b8063943ffc59116101b15780639f28645d116101805780639f28645d14610945578063a1080c1214610965578063a41cfc9314610985578063a457c2d71461099a578063a890e9cc146109ba57610431565b8063943ffc59146108db57806395d89b41146108f057806398da0179146109055780639e36eda61461092557610431565b80638129fc1c116101f85780638129fc1c14610867578063893d20e81461087c5780638bf55409146108915780638da5cb5b146108b157806391212e47146108c657610431565b8063715018a61461081257806371f94b6e146107dd578063788fd8e51461082757806379cc67901461084757610431565b80632793fde91161032f578063413b1cb5116102b7578063570ca73511610286578063570ca7351461079e57806364d9208e146107b35780636800a3b2146107c85780636e60eec7146107dd57806370a08231146107f257610431565b8063413b1cb51461073e57806342966c681461075e57806350cb82c614610629578063536cf2251461077e57610431565b80632e7ac412116102fe5780632e7ac412146106bf5780632ff2e9dc146106d45780632ffe1a6f146106e9578063313ce56714610709578063395093511461071e57610431565b80632793fde91461065e57806329934e28146106735780632a0897d6146106885780632e0f26251461069d57610431565b806318160ddd116103b25780631bc96b9c116103815780631bc96b9c146105cf5780631d29bd5a146105e45780631df97d6414610609578063202a04791461062957806323b872dd1461063e57610431565b806318160ddd14610560578063195f404a14610575578063198acaa3146105955780631a289938146105ba57610431565b806306fdde03116103f957806306fdde03146104ba57806307d5707c146104dc578063095ea7b3146104f15780630d2d8a311461051e5780630e33fbbf1461053e57610431565b8063022f9fa41461043657806303b04c581461046157806306394c9b1461048357806306c66ffe146104a557610431565b3661043157005b600080fd5b34801561044257600080fd5b5061044b610b97565b60405161045891906141d5565b60405180910390f35b34801561046d57600080fd5b50610476610b9f565b604051610458919061417a565b34801561048f57600080fd5b506104a361049e366004613685565b610c00565b005b3480156104b157600080fd5b506104a3610c51565b3480156104c657600080fd5b506104cf610c5b565b6040516104589190613a12565b3480156104e857600080fd5b5061044b610cf1565b3480156104fd57600080fd5b5061051161050c366004613766565b610cf7565b6040516104589190613a07565b34801561052a57600080fd5b5061044b610539366004613685565b610d15565b34801561054a57600080fd5b50610553610d27565b6040516104589190613958565b34801561056c57600080fd5b5061044b610d3f565b34801561058157600080fd5b50610553610590366004613685565b610d45565b3480156105a157600080fd5b506105aa610d60565b604051610458949392919061424e565b3480156105c657600080fd5b50610511610d6f565b3480156105db57600080fd5b5061044b610d78565b3480156105f057600080fd5b506105f9610d86565b60405161045894939291906139c1565b34801561061557600080fd5b506104a3610624366004613685565b610daa565b34801561063557600080fd5b5061044b610e1f565b34801561064a57600080fd5b506105116106593660046136f5565b610e25565b34801561066a57600080fd5b5061044b610eb5565b34801561067f57600080fd5b506105aa610ebc565b34801561069457600080fd5b506105aa610ecb565b3480156106a957600080fd5b506106b2610eda565b6040516104589190614269565b3480156106cb57600080fd5b50610553610edf565b3480156106e057600080fd5b5061044b610eee565b3480156106f557600080fd5b506104a3610704366004613735565b610f00565b34801561071557600080fd5b506106b2610f4d565b34801561072a57600080fd5b50610511610739366004613766565b610f52565b34801561074a57600080fd5b506104a3610759366004613815565b610f9d565b34801561076a57600080fd5b506104a36107793660046138c8565b61107d565b34801561078a57600080fd5b506104a3610799366004613791565b611091565b3480156107aa57600080fd5b506105536110e3565b3480156107bf57600080fd5b506104a36110f2565b3480156107d457600080fd5b5061044b611213565b3480156107e957600080fd5b5061044b611219565b3480156107fe57600080fd5b5061044b61080d366004613685565b61121f565b34801561081e57600080fd5b506104a361123e565b34801561083357600080fd5b506104a3610842366004613685565b611287565b34801561085357600080fd5b506104a3610862366004613766565b6112cf565b34801561087357600080fd5b506104a3611322565b34801561088857600080fd5b5061055361140b565b34801561089d57600080fd5b506104a36108ac3660046138c8565b61141a565b3480156108bd57600080fd5b5061055361145e565b3480156108d257600080fd5b506104a3611473565b3480156108e757600080fd5b506105116114e3565b3480156108fc57600080fd5b506104cf6114f1565b34801561091157600080fd5b506104a3610920366004613791565b611552565b34801561093157600080fd5b50610511610940366004613685565b611624565b34801561095157600080fd5b506104a3610960366004613766565b611639565b34801561097157600080fd5b506104a3610980366004613685565b611663565b34801561099157600080fd5b5061044b6116ab565b3480156109a657600080fd5b506105116109b5366004613766565b6116b0565b3480156109c657600080fd5b506104a36109d53660046138c8565b611729565b3480156109e657600080fd5b506105116109f5366004613766565b61176d565b348015610a0657600080fd5b5061044b611781565b348015610a1b57600080fd5b5061044b611787565b348015610a3057600080fd5b506104a361178d565b348015610a4557600080fd5b50610553611800565b348015610a5a57600080fd5b506105aa61180f565b348015610a6f57600080fd5b506104a3610a7e3660046137ad565b61181e565b348015610a8f57600080fd5b506104a3610a9e366004613685565b611987565b348015610aaf57600080fd5b506104a3610abe366004613685565b611ce8565b348015610acf57600080fd5b50610553611da2565b348015610ae457600080fd5b5061044b611db1565b348015610af957600080fd5b506104a3611db8565b348015610b0e57600080fd5b5061044b610b1d3660046136bd565b611dff565b348015610b2e57600080fd5b506104a3610b3d366004613685565b611e2a565b348015610b4e57600080fd5b50610511610b5d366004613685565b611e98565b348015610b6e57600080fd5b5061044b611eac565b348015610b8357600080fd5b506104a3610b923660046136bd565b611ebd565b6301e1855881565b610ba76135ca565b6016546001600160a01b0390811660009081526001602081815260408084205486526017548516845282825280842054868301526018548516845282825280842054868201526019549094168352522054606082015290565b6001600160a01b038116610c2f5760405162461bcd60e51b8152600401610c2690613a9b565b60405180910390fd5b602f80546001600160a01b0319166001600160a01b0392909216919091179055565b610c596110f2565b565b60048054604080516020601f6002600019610100600188161502019095169490940493840181900481028201810190925282815260609390929091830182828015610ce75780601f10610cbc57610100808354040283529160200191610ce7565b820191906000526020600020905b815481529060010190602001808311610cca57829003601f168201915b5050505050905090565b601c5481565b6000610d0b610d04611f0e565b8484611f12565b5060015b92915050565b60236020526000908152604090205481565b738887df2f38888117c0048eaf9e26174f2e75b8eb81565b60035490565b6021602052600090815260409020546001600160a01b031681565b600e54600f5460105460115484565b60245460ff1681565b69152d02c7e14af680000081565b6016546017546018546019546001600160a01b039384169392831692918216911684565b6001600160a01b03811615610df0576001600160a01b038116600090815260208052604090205460ff16610df05760405162461bcd60e51b8152600401610c2690613caa565b33600090815260216020526040902080546001600160a01b0319166001600160a01b0392909216919091179055565b61017781565b6000610e32848484611fc6565b6001600160a01b038416600090815260026020526040812081610e53611f0e565b6001600160a01b03166001600160a01b0316815260200190815260200160002054905082811015610e965760405162461bcd60e51b8152600401610c2690613e0b565b610eaa85610ea2611f0e565b858403611f12565b506001949350505050565b6298968081565b60065460075460085460095484565b600a54600b54600c54600d5484565b601281565b601f546001600160a01b031681565b6d314dc6448d9338c15b0a0000000081565b610f08611f0e565b6001600160a01b0316610f1961145e565b6001600160a01b031614610f3f5760405162461bcd60e51b8152600401610c2690613e53565b610f4982826121b7565b5050565b601290565b6000610d0b610f5f611f0e565b848460026000610f6d611f0e565b6001600160a01b03908116825260208083019390935260409182016000908120918b168152925290205401611f12565b610fa5611f0e565b6001600160a01b0316610fb661145e565b6001600160a01b031614610fdc5760405162461bcd60e51b8152600401610c2690613e53565b610fe58261220d565b508015611035578151600a9081556020830151600b55604080840151600c556060840151600d55516000805160206142d7833981519152916110289184906141a5565b60405180910390a1610f49565b8151601290815560208301516013556040808401516014556060840151601555516000805160206142d7833981519152916110719184906141a5565b60405180910390a15050565b61108e611088611f0e565b82612305565b50565b611099611f0e565b6001600160a01b03166110aa61145e565b6001600160a01b0316146110d05760405162461bcd60e51b8152600401610c2690613e53565b6024805460ff1916911515919091179055565b602f546001600160a01b031681565b6110fa611f0e565b6001600160a01b031661110b61145e565b6001600160a01b0316146111315760405162461bcd60e51b8152600401610c2690613e53565b6101776006819055607d6007819055600882905560098190556040805160808101825283815260208101839052908101929092526060820152611175906001610f9d565b6105dc600e8190556101f4600f8190556010829055601181905560408051608081018252838152602081018390529081019290925260608201526111ba906000610f9d565b601f80546001600160a01b031916738887df2f38888117c0048eaf9e26174f2e75b8eb1790556c0c9f2c9cd04674edea40000000601a5569152d02c7e14af6800000601b556301e18558601c556024805460ff19169055565b6105dc81565b6101f481565b6001600160a01b0381166000908152600160205260409020545b919050565b611246611f0e565b6001600160a01b031661125761145e565b6001600160a01b03161461127d5760405162461bcd60e51b8152600401610c2690613e53565b610c5960006123e3565b61128f611f0e565b6001600160a01b03166112a061145e565b6001600160a01b0316146112c65760405162461bcd60e51b8152600401610c2690613e53565b61108e8161243e565b60006112dd83610b1d611f0e565b9050818110156112ff5760405162461bcd60e51b8152600401610c2690613ebf565b6113138361130b611f0e565b848403611f12565b61131d8383612305565b505050565b600054610100900460ff168061133b575060005460ff16155b6113575760405162461bcd60e51b8152600401610c2690613d18565b600054610100900460ff16158015611382576000805460ff1961ff0019909116610100171660011790555b61138a612484565b6040805180820182526014815273283632b233b2902aba34b634ba3c902a37b5b2b760611b60208083019190915282518084019093526003835262504f4360e81b908301526113ef916d314dc6448d9338c15b0a000000006113ea61145e565b6124f4565b6113f7610c51565b801561108e576000805461ff001916905550565b600061141561145e565b905090565b611422611f0e565b6001600160a01b031661143361145e565b6001600160a01b0316146114595760405162461bcd60e51b8152600401610c2690613e53565b601a55565b6000546201000090046001600160a01b031690565b600054610100900460ff168061148c575060005460ff16155b6114a85760405162461bcd60e51b8152600401610c2690613d18565b600054610100900460ff161580156114d3576000805460ff1961ff0019909116610100171660011790555b6114db612484565b6113f761178d565b602454610100900460ff1681565b60058054604080516020601f6002600019610100600188161502019095169490940493840181900481028201810190925282815260609390929091830182828015610ce75780601f10610cbc57610100808354040283529160200191610ce7565b61155a611f0e565b6001600160a01b031661156b61145e565b6001600160a01b0316146115915760405162461bcd60e51b8152600401610c2690613e53565b600181151514156115e157600654600a908155600754600b55600854600c55600954600d556040516000805160206142d7833981519152916115d49184906141a5565b60405180910390a161108e565b600e546012908155600f546013556010546014556011546015556040516000805160206142d7833981519152916116199184906141a5565b60405180910390a150565b60226020526000908152604090205460ff1681565b6001600160a01b039190911660009081526023602052604090206201518090910242036001019055565b61166b611f0e565b6001600160a01b031661167c61145e565b6001600160a01b0316146116a25760405162461bcd60e51b8152600401610c2690613e53565b61108e81612599565b607d81565b600080600260006116bf611f0e565b6001600160a01b039081168252602080830193909352604091820160009081209188168152925290205490508281101561170b5760405162461bcd60e51b8152600401610c26906140fe565b61171f611716611f0e565b85858403611f12565b5060019392505050565b611731611f0e565b6001600160a01b031661174261145e565b6001600160a01b0316146117685760405162461bcd60e51b8152600401610c2690613e53565b601c55565b6000610d0b61177a611f0e565b8484611fc6565b601a5481565b601b5481565b600054610100900460ff16806117a6575060005460ff16155b6117c25760405162461bcd60e51b8152600401610c2690613d18565b600054610100900460ff161580156113f7576000805460ff1961ff001990911661010017166001179055801561108e576000805461ff001916905550565b601e546001600160a01b031681565b60125460135460145460155484565b611826611f0e565b6001600160a01b031661183761145e565b6001600160a01b03161461185d5760405162461bcd60e51b8152600401610c2690613e53565b60408101516001600160a01b031630146118895760405162461bcd60e51b8152600401610c2690613f44565b6017546118a0906001600160a01b031660006121b7565b6016546118b7906001600160a01b031660006121b7565b6019546118ce906001600160a01b031660006121b7565b6018546118e5906001600160a01b031660006121b7565b8051601680546001600160a01b03199081166001600160a01b039384161790915560208301516017805483168285161790556040840151601880548416918516919091179055606084015160198054909316931692909217905561194a9060016121b7565b80516119579060016121b7565b611966816060015160016121b7565b611975816040015160016121b7565b506024805461ff001916610100179055565b61198f611f0e565b6001600160a01b03166119a061145e565b6001600160a01b0316146119c65760405162461bcd60e51b8152600401610c2690613e53565b601d80546001600160a01b0319166001600160a01b0383169081179091556040805163c45a015560e01b8152905183929163c45a0155916004808301926020929190829003018186803b158015611a1c57600080fd5b505afa158015611a30573d6000803e3d6000fd5b505050506040513d601f19601f82011682018060405250810190611a5491906136a1565b6001600160a01b031663e6a4390530836001600160a01b031663ad5c46486040518163ffffffff1660e01b815260040160206040518083038186803b158015611a9c57600080fd5b505afa158015611ab0573d6000803e3d6000fd5b505050506040513d601f19601f82011682018060405250810190611ad491906136a1565b6040518363ffffffff1660e01b8152600401611af192919061396c565b60206040518083038186803b158015611b0957600080fd5b505afa158015611b1d573d6000803e3d6000fd5b505050506040513d601f19601f82011682018060405250810190611b4191906136a1565b601e80546001600160a01b0319166001600160a01b03928316179081905516610f4957806001600160a01b031663c45a01556040518163ffffffff1660e01b815260040160206040518083038186803b158015611b9d57600080fd5b505afa158015611bb1573d6000803e3d6000fd5b505050506040513d601f19601f82011682018060405250810190611bd591906136a1565b6001600160a01b031663c9c6539630836001600160a01b031663ad5c46486040518163ffffffff1660e01b815260040160206040518083038186803b158015611c1d57600080fd5b505afa158015611c31573d6000803e3d6000fd5b505050506040513d601f19601f82011682018060405250810190611c5591906136a1565b6040518363ffffffff1660e01b8152600401611c7292919061396c565b602060405180830381600087803b158015611c8c57600080fd5b505af1158015611ca0573d6000803e3d6000fd5b505050506040513d601f19601f82011682018060405250810190611cc491906136a1565b601e80546001600160a01b0319166001600160a01b03929092169190911790555050565b611cf0611f0e565b6001600160a01b0316611d0161145e565b6001600160a01b031614611d275760405162461bcd60e51b8152600401610c2690613e53565b601f546001600160a01b031615611d5a57601f546001600160a01b031660009081526020805260409020805460ff191690555b601f80546001600160a01b0319166001600160a01b0383169081179091551561108e576001600160a01b03811660009081526020805260409020805460ff1916600117905550565b601d546001600160a01b031681565b620186a081565b611dc0611f0e565b6001600160a01b0316611dd161145e565b6001600160a01b031614611df75760405162461bcd60e51b8152600401610c2690613e53565b610c596125e2565b6001600160a01b03918216600090815260026020908152604080832093909416825291909152205490565b611e32611f0e565b6001600160a01b0316611e4361145e565b6001600160a01b031614611e695760405162461bcd60e51b8152600401610c2690613e53565b6001600160a01b038116611e8f5760405162461bcd60e51b8152600401610c2690613b3d565b61108e816123e3565b602080526000908152604090205460ff1681565b6c0c9f2c9cd04674edea4000000081565b611ec5611f0e565b6001600160a01b0316611ed661145e565b6001600160a01b031614611efc5760405162461bcd60e51b8152600401610c2690613e53565b611f058261243e565b610f4981612599565b3390565b6001600160a01b038316611f385760405162461bcd60e51b8152600401610c2690613fb2565b6001600160a01b038216611f5e5760405162461bcd60e51b8152600401610c2690613b83565b6001600160a01b0380841660008181526002602090815260408083209487168084529490915290819020849055517f8c5be1e5ebec7d5bd14f71427d1e84f3dd0314c0f7b2291e5b200ac8c7c3b92590611fb99085906141d5565b60405180910390a3505050565b6001600160a01b038316611fec5760405162461bcd60e51b8152600401610c2690613d9d565b6001600160a01b0382166120125760405162461bcd60e51b8152600401610c2690614083565b61201d83838361131d565b6001600160a01b038316600090815260016020526040902054818110156120565760405162461bcd60e51b8152600401610c2690613b06565b61206084846129d1565b61208657601a548211156120865760405162461bcd60e51b8152600401610c2690613bf3565b6001600160a01b0384166000908152600160205260409020805483900390556120af8484612a68565b6121205760245460ff6101009091041615156001146120e05760405162461bcd60e51b8152600401610c2690613f7b565b6120ea8484612a82565b6120f48483612bbe565b6001600160a01b0380861660009081526023602052604080822042908190559287168252902055909103905b6001600160a01b038084166000818152600160205260409081902080548601905551909186169060008051602061431a833981519152906121629086906141d5565b60405180910390a360245460ff16801561218a5750601e546001600160a01b03858116911614155b80156121a45750601e546001600160a01b03848116911614155b156121b1576121b16125e2565b50505050565b6001600160a01b03821660009081526022602052604090819020805460ff1916831515179055517fb6915003dd74438aea93a39ca67188c6704fdde74bb059bdc965fde3e3f6768c9061107190849084906139ec565b80516000906298968010156122345760405162461bcd60e51b8152600401610c2690613ff6565b81516298968010156122585760405162461bcd60e51b8152600401610c2690613e88565b602082015162989680101561227f5760405162461bcd60e51b8152600401610c2690613dd4565b60608201516298968010156122a65760405162461bcd60e51b8152600401610c269061404c565b60408201516298968010156122cd5760405162461bcd60e51b8152600401610c2690613ce1565b506040810151606082015160208301518351010101629896808111156112395760405162461bcd60e51b8152600401610c2690613c51565b6001600160a01b03821661232b5760405162461bcd60e51b8152600401610c2690613f03565b6123378260008361131d565b6001600160a01b038216600090815260016020526040902054818110156123705760405162461bcd60e51b8152600401610c2690613ac4565b61237a8183612c0f565b6001600160a01b0384166000908152600160205260409020556003546123a09083612c0f565b6003556040516000906001600160a01b0385169060008051602061431a833981519152906123cf9086906141d5565b60405180910390a361131d8360008461131d565b600080546001600160a01b038381166201000081810262010000600160b01b0319851617855560405193049190911692909183917f8be0079c531659141344cd1fd0a4f28419497f9722a3daafe3b4186f6b6457e091a35050565b6001600160a01b0381166124645760405162461bcd60e51b8152600401610c2690613d66565b6001600160a01b031660009081526020805260409020805460ff19169055565b600054610100900460ff168061249d575060005460ff16155b6124b95760405162461bcd60e51b8152600401610c2690613d18565b600054610100900460ff161580156124e4576000805460ff1961ff0019909116610100171660011790555b6124ec61178d565b6113f7612c32565b600054610100900460ff168061250d575060005460ff16155b6125295760405162461bcd60e51b8152600401610c2690613d18565b600054610100900460ff16158015612554576000805460ff1961ff0019909116610100171660011790555b61255c61178d565b612564612c32565b61256e8585612ca2565b612576610c59565b6125808383612cc9565b8015612592576000805461ff00191690555b5050505050565b6001600160a01b0381166125bf5760405162461bcd60e51b8152600401610c2690613d66565b6001600160a01b031660009081526020805260409020805460ff19166001179055565b60245462010000900460ff161561260b5760405162461bcd60e51b8152600401610c2690614020565b6024805462ff00001916620100001790556018546001600160a01b0316600090815260016020526040902054601b5447919081106129c157601b549050600080600080601e60009054906101000a90046001600160a01b03166001600160a01b0316630dfe16816040518163ffffffff1660e01b815260040160206040518083038186803b15801561269c57600080fd5b505afa1580156126b0573d6000803e3d6000fd5b505050506040513d601f19601f820116820180604052508101906126d491906136a1565b9050306001600160a01b038216141561278357601e60009054906101000a90046001600160a01b03166001600160a01b0316630902f1ac6040518163ffffffff1660e01b815260040160606040518083038186803b15801561273557600080fd5b505afa158015612749573d6000803e3d6000fd5b505050506040513d601f19601f8201168201806040525081019061276d9190613874565b506001600160701b03918216945016915061281b565b601e60009054906101000a90046001600160a01b03166001600160a01b0316630902f1ac6040518163ffffffff1660e01b815260040160606040518083038186803b1580156127d157600080fd5b505afa1580156127e5573d6000803e3d6000fd5b505050506040513d601f19601f820116820180604052508101906128099190613874565b506001600160701b0390811694501691505b6107ce83026107cc8161283f888702623ce9c0026128398380612d49565b01612d80565b038161284757fe5b0494505050505061285781612ecb565b30600090815260016020526040902054478284038582036128788282613027565b3060009081526001602052604090205447888110156128a95760405162461bcd60e51b8152600401610c26906140ba565b6128dd604051806040016040528060138152602001714b0b6b7bab73a2a37a634b8bab4b33c901e9606d1b815250896130d2565b6129006040518060600160405280602381526020016142f7602391398589613117565b6129406040518060400160405280602081526020017f096574686572496e697469616c2c206574686572416674657253776170203d208152508a87613117565b612976604051806040016040528060138152602001714b2ba3432b9103932b6b0b4b73a32b9101e9606d1b8152508a83036130d2565b7f93efcf28fbf701a930e0ad258987a2e4f08eb3aa99f9c02029e7ba049f69405f878a87038885038885036040516129b1949392919061424e565b60405180910390a1505050505050505b50506024805462ff000019169055565b60006129dc8361315e565b806129eb57506129eb8261315e565b80612a2657506129f961145e565b6001600160a01b0316836001600160a01b0316148015612a265750601e546001600160a01b038381169116145b80612a615750601e546001600160a01b038481169116148015612a615750612a4c61145e565b6001600160a01b0316826001600160a01b0316145b9392505050565b6000612a73836131de565b806129eb57506129eb826131de565b6001600160a01b038116600090815260208052604090205460ff1615156001148015612ac657506001600160a01b0382811660009081526021602052604090205416155b15612b09576001600160a01b03808316600090815260216020526040902080549183166001600160a01b0319928316811790915560178054909216179055610f49565b601f54601780546001600160a01b0319166001600160a01b03928316179055828116600090815260216020526040902054168015801590612b6157506001600160a01b038116600090815260208052604090205460ff165b15612b96576001600160a01b03808416600090815260216020526040902054601780546001600160a01b031916919092161790555b6017546001600160a01b031661131d5760405162461bcd60e51b8152600401610c2690613c81565b601c546001600160a01b0383166000908152602360205260408120549091429190910310612bfa57612bf48383600a601661325d565b01610d0f565b612c0883836012601661325d565b0192915050565b80820382811115610d0f5760405162461bcd60e51b8152600401610c2690613a6c565b600054610100900460ff1680612c4b575060005460ff16155b612c675760405162461bcd60e51b8152600401610c2690613d18565b600054610100900460ff16158015612c92576000805460ff1961ff0019909116610100171660011790555b6113f7612c9d611f0e565b6123e3565b8151612cb59060049060208501906135f2565b50805161131d9060059060208401906135f2565b600054610100900460ff1680612ce2575060005460ff16155b612cfe5760405162461bcd60e51b8152600401610c2690613d18565b600054610100900460ff16158015612d29576000805460ff1961ff0019909116610100171660011790555b612d338284613457565b801561131d576000805461ff0019169055505050565b6000811580612d6457505080820282828281612d6157fe5b04145b610d0f5760405162461bcd60e51b8152600401610c2690613bc5565b600081612d8f57506000611239565b50600181600160801b8110612da95760409190911b9060801c5b680100000000000000008110612dc45760209190911b9060401c5b6401000000008110612ddb5760109190911b9060201c5b620100008110612df05760089190911b9060101c5b6101008110612e045760049190911b9060081c5b60108110612e175760029190911b9060041c5b60088110612e2757600182901b91505b6001828481612e3257fe5b048301901c91506001828481612e4457fe5b048301901c91506001828481612e5657fe5b048301901c91506001828481612e6857fe5b048301901c91506001828481612e7a57fe5b048301901c91506001828481612e8c57fe5b048301901c91506001828481612e9e57fe5b048301901c91506000828481612eb057fe5b04905080831015612ec15782612ec3565b805b949350505050565b60408051600280825260608083018452926020830190803683370190505090503081600081518110612ef957fe5b6001600160a01b03928316602091820292909201810191909152601d54604080516315ab88c960e31b81529051919093169263ad5c4648926004808301939192829003018186803b158015612f4d57600080fd5b505afa158015612f61573d6000803e3d6000fd5b505050506040513d601f19601f82011682018060405250810190612f8591906136a1565b81600181518110612f9257fe5b6001600160a01b039283166020918202929092010152601d54612fb89130911684611f12565b601d5460405163791ac94760e01b81526001600160a01b039091169063791ac94790612ff19085906000908690309042906004016141de565b600060405180830381600087803b15801561300b57600080fd5b505af115801561301f573d6000803e3d6000fd5b505050505050565b601d5461303f9030906001600160a01b031684611f12565b601d546001600160a01b031663f305d71982308560008061305e61145e565b426040518863ffffffff1660e01b815260040161308096959493929190613986565b6060604051808303818588803b15801561309957600080fd5b505af11580156130ad573d6000803e3d6000fd5b50505050506040513d601f19601f8201168201806040525081019061259291906138e0565b610f4982826040516024016130e8929190613a25565b60408051601f198184030181529190526020810180516001600160e01b03166309710a9d60e41b17905261350d565b61131d83838360405160240161312f93929190613a47565b60408051601f198184030181529190526020810180516001600160e01b031663969cdd0360e01b17905261350d565b6016546000906001600160a01b038381169116148061318a57506017546001600160a01b038381169116145b806131a257506018546001600160a01b038381169116145b806131ba57506019546001600160a01b038381169116145b80610d0f5750506001600160a01b0316600090815260208052604090205460ff1690565b6001600160a01b03811660009081526022602052604081205460ff168061321257506016546001600160a01b038381169116145b8061322a57506017546001600160a01b038381169116145b8061324257506018546001600160a01b038381169116145b80610d0f5750506019546001600160a01b0390811691161490565b600080613284620186a061327e866000015488612d4990919063ffffffff16565b9061352e565b83546001600160a01b0390811660009081526001602052604090819020805484019055855490519293508116919088169060008051602061431a833981519152906132d09085906141d5565b60405180910390a380820191506132fb620186a061327e866001015488612d4990919063ffffffff16565b600184810180546001600160a01b03908116600090815260209390935260409283902080548501905590549151929350908116919088169060008051602061431a8339815191529061334e9085906141d5565b60405180910390a38082019150613379620186a061327e866003015488612d4990919063ffffffff16565b6003840180546001600160a01b039081166000908152600160205260409081902080548501905591549151929350908116919088169060008051602061431a833981519152906133ca9085906141d5565b60405180910390a380820191506133f5620186a061327e866002015488612d4990919063ffffffff16565b6002840180546001600160a01b039081166000908152600160205260409081902080548501905591549151929350908116919088169060008051602061431a833981519152906134469085906141d5565b60405180910390a301949350505050565b6001600160a01b03821661347d5760405162461bcd60e51b8152600401610c2690614143565b6134896000838361131d565b6003546134969082613570565b6003556001600160a01b0382166000908152600160205260409020546134bc9082613570565b6001600160a01b03831660008181526001602052604080822093909355915190919060008051602061431a833981519152906134f99085906141d5565b60405180910390a3610f496000838361131d565b80516a636f6e736f6c652e6c6f67602083016000808483855afa5050505050565b6000612a6183836040518060400160405280601a81526020017f536166654d6174683a206469766973696f6e206279207a65726f000000000000815250613593565b80820182811015610d0f5760405162461bcd60e51b8152600401610c2690613c23565b600081836135b45760405162461bcd60e51b8152600401610c269190613a12565b5060008385816135c057fe5b0495945050505050565b6040518060800160405280600081526020016000815260200160008152602001600081525090565b828054600181600116156101000203166002900490600052602060002090601f016020900481019282601f1061363357805160ff1916838001178555613660565b82800160010185558215613660579182015b82811115613660578251825591602001919060010190613645565b5061366c929150613670565b5090565b5b8082111561366c5760008155600101613671565b600060208284031215613696578081fd5b8135612a618161429e565b6000602082840312156136b2578081fd5b8151612a618161429e565b600080604083850312156136cf578081fd5b82356136da8161429e565b915060208301356136ea8161429e565b809150509250929050565b600080600060608486031215613709578081fd5b83356137148161429e565b925060208401356137248161429e565b929592945050506040919091013590565b60008060408385031215613747578182fd5b82356137528161429e565b9150602083013580151581146136ea578182fd5b60008060408385031215613778578182fd5b82356137838161429e565b946020939093013593505050565b6000602082840312156137a2578081fd5b8135612a61816142b3565b6000608082840312156137be578081fd5b6137c86080614277565b82356137d38161429e565b815260208301356137e38161429e565b602082015260408301356137f68161429e565b604082015260608301356138098161429e565b60608201529392505050565b60008082840360a0811215613828578283fd5b6080811215613835578283fd5b506138406080614277565b833581526020840135602082015260408401356040820152606084013560608201528092505060808301356136ea816142b3565b600080600060608486031215613888578283fd5b8351613893816142c1565b60208501519093506138a4816142c1565b604085015190925063ffffffff811681146138bd578182fd5b809150509250925092565b6000602082840312156138d9578081fd5b5035919050565b6000806000606084860312156138f4578283fd5b8351925060208401519150604084015190509250925092565b60008151808452815b8181101561393257602081850181015186830182015201613916565b818111156139435782602083870101525b50601f01601f19169290920160200192915050565b6001600160a01b0391909116815260200190565b6001600160a01b0392831681529116602082015260400190565b6001600160a01b039687168152602081019590955260408501939093526060840191909152909216608082015260a081019190915260c00190565b6001600160a01b03948516815292841660208401529083166040830152909116606082015260800190565b6001600160a01b039290921682521515602082015260400190565b901515815260200190565b600060208252612a61602083018461390d565b600060408252613a38604083018561390d565b90508260208301529392505050565b600060608252613a5a606083018661390d565b60208301949094525060400152919050565b60208082526015908201527464732d6d6174682d7375622d756e646572666c6f7760581b604082015260600190565b6020808252600f908201526e496e76616c6964206164647265737360881b604082015260600190565b60208082526022908201527f45524332303a206275726e20616d6f756e7420657863656564732062616c616e604082015261636560f01b606082015260800190565b60208082526018908201527f5472616e7366657220657863656564732062616c616e63650000000000000000604082015260600190565b60208082526026908201527f4f776e61626c653a206e6577206f776e657220697320746865207a65726f206160408201526564647265737360d01b606082015260800190565b60208082526022908201527f45524332303a20617070726f766520746f20746865207a65726f206164647265604082015261737360f01b606082015260800190565b60208082526014908201527364732d6d6174682d6d756c2d6f766572666c6f7760601b604082015260600190565b602080825260169082015275151c985b9cd9995c88195e18d959591cc81b1a5b5a5d60521b604082015260600190565b60208082526014908201527364732d6d6174682d6164642d6f766572666c6f7760601b604082015260600190565b602080825260169082015275546f74616c20666565206f7574206f662072616e676560501b604082015260600190565b6020808252600f908201526e496e76616c6964206368617269747960881b604082015260600190565b60208082526019908201527f436861726974792061646472657373206e6f7420666f756e6400000000000000604082015260600190565b6020808252601a908201527f4c697175696469747920666565206f7574206f662072616e6765000000000000604082015260600190565b6020808252602e908201527f496e697469616c697a61626c653a20636f6e747261637420697320616c72656160408201526d191e481a5b9a5d1a585b1a5e995960921b606082015260800190565b60208082526017908201527f496e76616c696420636861726974792061646472657373000000000000000000604082015260600190565b6020808252601a908201527f5472616e736665722066726f6d207a65726f2061646472657373000000000000604082015260600190565b60208082526018908201527f4368617269747920666565206f7574206f662072616e67650000000000000000604082015260600190565b60208082526028908201527f45524332303a207472616e7366657220616d6f756e74206578636565647320616040820152676c6c6f77616e636560c01b606082015260800190565b6020808252818101527f4f776e61626c653a2063616c6c6572206973206e6f7420746865206f776e6572604082015260600190565b6020808252601a908201527f4d61726b6574696e6720666565206f7574206f662072616e6765000000000000604082015260600190565b60208082526024908201527f45524332303a206275726e20616d6f756e74206578636565647320616c6c6f77604082015263616e636560e01b606082015260800190565b60208082526021908201527f45524332303a206275726e2066726f6d20746865207a65726f206164647265736040820152607360f81b606082015260800190565b60208082526017908201527f57726f6e67206c6971756964697479206163636f756e74000000000000000000604082015260600190565b60208082526019908201527f4665652062656e65666963696172696573206e6f742073657400000000000000604082015260600190565b60208082526024908201527f45524332303a20617070726f76652066726f6d20746865207a65726f206164646040820152637265737360e01b606082015260800190565b60208082526010908201526f466565206f7574206f662072616e676560801b604082015260600190565b6020808252601290820152712732b9ba32b2103634b8bab4b33cb4b7339760711b604082015260600190565b60208082526018908201527f4c6f747465727920666565206f7574206f662072616e67650000000000000000604082015260600190565b60208082526018908201527f5472616e7366657220746f207a65726f20616464726573730000000000000000604082015260600190565b60208082526024908201527f094574686572206c6f737320696e2061646472657373287468697329206163636040820152631bdd5b9d60e21b606082015260800190565b60208082526025908201527f45524332303a2064656372656173656420616c6c6f77616e63652062656c6f77604082015264207a65726f60d81b606082015260800190565b6020808252601f908201527f45524332303a206d696e7420746f20746865207a65726f206164647265737300604082015260600190565b8151815260208083015190820152604080830151908201526060918201519181019190915260800190565b82548152600183015460208201526002830154604082015260039092015460608301521515608082015260a00190565b90815260200190565b600060a082018783526020878185015260a0604085015281875180845260c0860191508289019350845b8181101561422d5784516001600160a01b031683529383019391830191600101614208565b50506001600160a01b03969096166060850152505050608001529392505050565b93845260208401929092526040830152606082015260800190565b60ff91909116815260200190565b60405181810167ffffffffffffffff8111828210171561429657600080fd5b604052919050565b6001600160a01b038116811461108e57600080fd5b801515811461108e57600080fd5b6001600160701b038116811461108e57600080fdfe2553647d01733860e672e0ccc1dc4d0a9095944137d20536505911a8496acd3709203d20746f6b656e546f4164644c6971202b20746f6b656e466f7245746865723a20ddf252ad1be2c89b69c2b068fc378daa952ba7f163c4a11628f55a4df523b3efa264697066735822122032695c27910ac3cdaa07cfca4f38ed5870424190f0893b3ef73bb761af5ff96d64736f6c634300060c0033",
  "linkReferences": {},
  "deployedLinkReferences": {}
}