{
  "_format": "hh-sol-artifact-1",
  "contractName": "Pledge08Up",
  "sourceName": "contracts/Pledge08Up.sol",
  "abi": [
    {
      "anonymous": false,
      "inputs": [
        {
          "indexed": true,
          "internalType": "address",
          "name": "owner",
          "type": "address"
        },
        {
          "indexed": true,
          "internalType": "address",
          "name": "spender",
          "type": "address"
        },
        {
          "indexed": false,
          "internalType": "uint256",
          "name": "value",
          "type": "uint256"
        }
      ],
      "name": "Approval",
      "type": "event"
    },
    {
      "anonymous": false,
      "inputs": [
        {
          "indexed": false,
          "internalType": "address",
          "name": "user",
          "type": "address"
        },
        {
          "indexed": false,
          "internalType": "bool",
          "name": "free",
          "type": "bool"
        }
      ],
      "name": "FreeFromFees",
      "type": "event"
    },
    {
      "anonymous": false,
      "inputs": [
        {
          "indexed": true,
          "internalType": "address",
          "name": "previousOwner",
          "type": "address"
        },
        {
          "indexed": true,
          "internalType": "address",
          "name": "newOwner",
          "type": "address"
        }
      ],
      "name": "OwnershipTransferred",
      "type": "event"
    },
    {
      "anonymous": false,
      "inputs": [
        {
          "components": [
            {
              "internalType": "uint256",
              "name": "marketing",
              "type": "uint256"
            },
            {
              "internalType": "uint256",
              "name": "charity",
              "type": "uint256"
            },
            {
              "internalType": "uint256",
              "name": "liquidity",
              "type": "uint256"
            },
            {
              "internalType": "uint256",
              "name": "lottery",
              "type": "uint256"
            }
          ],
          "indexed": false,
          "internalType": "struct Pledge07Up.Fees",
          "name": "fees",
          "type": "tuple"
        },
        {
          "indexed": false,
          "internalType": "bool",
          "name": "lowerNotHigher",
          "type": "bool"
        }
      ],
      "name": "SetFees",
      "type": "event"
    },
    {
      "anonymous": false,
      "inputs": [
        {
          "indexed": false,
          "internalType": "uint256",
          "name": "tokenSwapped",
          "type": "uint256"
        },
        {
          "indexed": false,
          "internalType": "uint256",
          "name": "etherReceived",
          "type": "uint256"
        },
        {
          "indexed": false,
          "internalType": "uint256",
          "name": "tokenLiquified",
          "type": "uint256"
        },
        {
          "indexed": false,
          "internalType": "uint256",
          "name": "etherLiquified",
          "type": "uint256"
        }
      ],
      "name": "SwapAndLiquify",
      "type": "event"
    },
    {
      "anonymous": false,
      "inputs": [
        {
          "indexed": true,
          "internalType": "address",
          "name": "from",
          "type": "address"
        },
        {
          "indexed": true,
          "internalType": "address",
          "name": "to",
          "type": "address"
        },
        {
          "indexed": false,
          "internalType": "uint256",
          "name": "value",
          "type": "uint256"
        }
      ],
      "name": "Transfer",
      "type": "event"
    },
    {
      "inputs": [],
      "name": "DECIMALS",
      "outputs": [
        {
          "internalType": "uint8",
          "name": "",
          "type": "uint8"
        }
      ],
      "stateMutability": "view",
      "type": "function"
    },
    {
      "inputs": [],
      "name": "FEE_HUNDRED_PERCENT",
      "outputs": [
        {
          "internalType": "uint256",
          "name": "",
          "type": "uint256"
        }
      ],
      "stateMutability": "view",
      "type": "function"
    },
    {
      "inputs": [],
      "name": "FEE_MAGNIFIER",
      "outputs": [
        {
          "internalType": "uint256",
          "name": "",
          "type": "uint256"
        }
      ],
      "stateMutability": "view",
      "type": "function"
    },
    {
      "inputs": [],
      "name": "INITIAL_GENERAL_CHARITY",
      "outputs": [
        {
          "internalType": "address",
          "name": "",
          "type": "address"
        }
      ],
      "stateMutability": "view",
      "type": "function"
    },
    {
      "inputs": [],
      "name": "INITIAL_HIGHER_CHARITY_FEE",
      "outputs": [
        {
          "internalType": "uint256",
          "name": "",
          "type": "uint256"
        }
      ],
      "stateMutability": "view",
      "type": "function"
    },
    {
      "inputs": [],
      "name": "INITIAL_HIGHER_LIQUIDITY_FEE",
      "outputs": [
        {
          "internalType": "uint256",
          "name": "",
          "type": "uint256"
        }
      ],
      "stateMutability": "view",
      "type": "function"
    },
    {
      "inputs": [],
      "name": "INITIAL_HIGHER_LOTTERY_FEE",
      "outputs": [
        {
          "internalType": "uint256",
          "name": "",
          "type": "uint256"
        }
      ],
      "stateMutability": "view",
      "type": "function"
    },
    {
      "inputs": [],
      "name": "INITIAL_HIGHER_MARKETING_FEE",
      "outputs": [
        {
          "internalType": "uint256",
          "name": "",
          "type": "uint256"
        }
      ],
      "stateMutability": "view",
      "type": "function"
    },
    {
      "inputs": [],
      "name": "INITIAL_LOWER_CHARITY_FEE",
      "outputs": [
        {
          "internalType": "uint256",
          "name": "",
          "type": "uint256"
        }
      ],
      "stateMutability": "view",
      "type": "function"
    },
    {
      "inputs": [],
      "name": "INITIAL_LOWER_LIQUIDITY_FEE",
      "outputs": [
        {
          "internalType": "uint256",
          "name": "",
          "type": "uint256"
        }
      ],
      "stateMutability": "view",
      "type": "function"
    },
    {
      "inputs": [],
      "name": "INITIAL_LOWER_LOTTERY_FEE",
      "outputs": [
        {
          "internalType": "uint256",
          "name": "",
          "type": "uint256"
        }
      ],
      "stateMutability": "view",
      "type": "function"
    },
    {
      "inputs": [],
      "name": "INITIAL_LOWER_MARKETING_FEE",
      "outputs": [
        {
          "internalType": "uint256",
          "name": "",
          "type": "uint256"
        }
      ],
      "stateMutability": "view",
      "type": "function"
    },
    {
      "inputs": [],
      "name": "INITIAL_SUPPLY",
      "outputs": [
        {
          "internalType": "uint256",
          "name": "",
          "type": "uint256"
        }
      ],
      "stateMutability": "view",
      "type": "function"
    },
    {
      "inputs": [],
      "name": "LIQUIDITY_QUANTUM",
      "outputs": [
        {
          "internalType": "uint256",
          "name": "",
          "type": "uint256"
        }
      ],
      "stateMutability": "view",
      "type": "function"
    },
    {
      "inputs": [],
      "name": "MAX_TRANSFER_AMOUNT",
      "outputs": [
        {
          "internalType": "uint256",
          "name": "",
          "type": "uint256"
        }
      ],
      "stateMutability": "view",
      "type": "function"
    },
    {
      "inputs": [],
      "name": "MIN_HODL_TIME_SECONDS",
      "outputs": [
        {
          "internalType": "uint256",
          "name": "",
          "type": "uint256"
        }
      ],
      "stateMutability": "view",
      "type": "function"
    },
    {
      "inputs": [],
      "name": "__PledgeV8_init",
      "outputs": [],
      "stateMutability": "nonpayable",
      "type": "function"
    },
    {
      "inputs": [],
      "name": "__PledgeV8_init_unchained",
      "outputs": [],
      "stateMutability": "nonpayable",
      "type": "function"
    },
    {
      "inputs": [],
      "name": "__Pledge_init",
      "outputs": [],
      "stateMutability": "nonpayable",
      "type": "function"
    },
    {
      "inputs": [],
      "name": "__Pledge_init_unchained",
      "outputs": [],
      "stateMutability": "nonpayable",
      "type": "function"
    },
    {
      "inputs": [
        {
          "internalType": "address",
          "name": "holder",
          "type": "address"
        },
        {
          "internalType": "uint256",
          "name": "daysAgo",
          "type": "uint256"
        }
      ],
      "name": "___test___setLastTransferTime",
      "outputs": [],
      "stateMutability": "nonpayable",
      "type": "function"
    },
    {
      "inputs": [
        {
          "internalType": "address",
          "name": "_charityAddress",
          "type": "address"
        }
      ],
      "name": "addCharityAddress",
      "outputs": [],
      "stateMutability": "nonpayable",
      "type": "function"
    },
    {
      "inputs": [
        {
          "internalType": "address",
          "name": "owner",
          "type": "address"
        },
        {
          "internalType": "address",
          "name": "spender",
          "type": "address"
        }
      ],
      "name": "allowance",
      "outputs": [
        {
          "internalType": "uint256",
          "name": "",
          "type": "uint256"
        }
      ],
      "stateMutability": "view",
      "type": "function"
    },
    {
      "inputs": [
        {
          "internalType": "address",
          "name": "spender",
          "type": "address"
        },
        {
          "internalType": "uint256",
          "name": "amount",
          "type": "uint256"
        }
      ],
      "name": "approve",
      "outputs": [
        {
          "internalType": "bool",
          "name": "",
          "type": "bool"
        }
      ],
      "stateMutability": "nonpayable",
      "type": "function"
    },
    {
      "inputs": [],
      "name": "autoliquify",
      "outputs": [
        {
          "internalType": "bool",
          "name": "",
          "type": "bool"
        }
      ],
      "stateMutability": "view",
      "type": "function"
    },
    {
      "inputs": [
        {
          "internalType": "address",
          "name": "account",
          "type": "address"
        }
      ],
      "name": "balanceOf",
      "outputs": [
        {
          "internalType": "uint256",
          "name": "",
          "type": "uint256"
        }
      ],
      "stateMutability": "view",
      "type": "function"
    },
    {
      "inputs": [],
      "name": "beneficiaries",
      "outputs": [
        {
          "internalType": "address",
          "name": "marketing",
          "type": "address"
        },
        {
          "internalType": "address",
          "name": "charity",
          "type": "address"
        },
        {
          "internalType": "address",
          "name": "liquidity",
          "type": "address"
        },
        {
          "internalType": "address",
          "name": "lottery",
          "type": "address"
        }
      ],
      "stateMutability": "view",
      "type": "function"
    },
    {
      "inputs": [],
      "name": "beneficiariesSet",
      "outputs": [
        {
          "internalType": "bool",
          "name": "",
          "type": "bool"
        }
      ],
      "stateMutability": "view",
      "type": "function"
    },
    {
      "inputs": [
        {
          "internalType": "uint256",
          "name": "amount",
          "type": "uint256"
        }
      ],
      "name": "burn",
      "outputs": [],
      "stateMutability": "nonpayable",
      "type": "function"
    },
    {
      "inputs": [
        {
          "internalType": "address",
          "name": "account",
          "type": "address"
        },
        {
          "internalType": "uint256",
          "name": "amount",
          "type": "uint256"
        }
      ],
      "name": "burnFrom",
      "outputs": [],
      "stateMutability": "nonpayable",
      "type": "function"
    },
    {
      "inputs": [
        {
          "internalType": "address",
          "name": "_oldCharityAddress",
          "type": "address"
        },
        {
          "internalType": "address",
          "name": "_newCharityAddress",
          "type": "address"
        }
      ],
      "name": "changeCharityAddress",
      "outputs": [],
      "stateMutability": "nonpayable",
      "type": "function"
    },
    {
      "inputs": [
        {
          "internalType": "address",
          "name": "newOperator",
          "type": "address"
        }
      ],
      "name": "changeOperator",
      "outputs": [],
      "stateMutability": "nonpayable",
      "type": "function"
    },
    {
      "inputs": [
        {
          "internalType": "address",
          "name": "_routerAddress",
          "type": "address"
        }
      ],
      "name": "createLiquidityPool",
      "outputs": [],
      "stateMutability": "nonpayable",
      "type": "function"
    },
    {
      "inputs": [],
      "name": "decimals",
      "outputs": [
        {
          "internalType": "uint8",
          "name": "",
          "type": "uint8"
        }
      ],
      "stateMutability": "view",
      "type": "function"
    },
    {
      "inputs": [
        {
          "internalType": "address",
          "name": "spender",
          "type": "address"
        },
        {
          "internalType": "uint256",
          "name": "subtractedValue",
          "type": "uint256"
        }
      ],
      "name": "decreaseAllowance",
      "outputs": [
        {
          "internalType": "bool",
          "name": "",
          "type": "bool"
        }
      ],
      "stateMutability": "nonpayable",
      "type": "function"
    },
    {
      "inputs": [],
      "name": "feeBalances",
      "outputs": [
        {
          "components": [
            {
              "internalType": "uint256",
              "name": "marketing",
              "type": "uint256"
            },
            {
              "internalType": "uint256",
              "name": "charity",
              "type": "uint256"
            },
            {
              "internalType": "uint256",
              "name": "liquidity",
              "type": "uint256"
            },
            {
              "internalType": "uint256",
              "name": "lottery",
              "type": "uint256"
            }
          ],
          "internalType": "struct Pledge07Up.FeeBalances",
          "name": "balances",
          "type": "tuple"
        }
      ],
      "stateMutability": "view",
      "type": "function"
    },
    {
      "inputs": [
        {
          "internalType": "address",
          "name": "user",
          "type": "address"
        },
        {
          "internalType": "bool",
          "name": "free",
          "type": "bool"
        }
      ],
      "name": "freeFromFees",
      "outputs": [],
      "stateMutability": "nonpayable",
      "type": "function"
    },
    {
      "inputs": [],
      "name": "generalCharityAddress",
      "outputs": [
        {
          "internalType": "address",
          "name": "",
          "type": "address"
        }
      ],
      "stateMutability": "view",
      "type": "function"
    },
    {
      "inputs": [],
      "name": "getOwner",
      "outputs": [
        {
          "internalType": "address",
          "name": "",
          "type": "address"
        }
      ],
      "stateMutability": "view",
      "type": "function"
    },
    {
      "inputs": [],
      "name": "higherFees",
      "outputs": [
        {
          "internalType": "uint256",
          "name": "marketing",
          "type": "uint256"
        },
        {
          "internalType": "uint256",
          "name": "charity",
          "type": "uint256"
        },
        {
          "internalType": "uint256",
          "name": "liquidity",
          "type": "uint256"
        },
        {
          "internalType": "uint256",
          "name": "lottery",
          "type": "uint256"
        }
      ],
      "stateMutability": "view",
      "type": "function"
    },
    {
      "inputs": [
        {
          "internalType": "address",
          "name": "spender",
          "type": "address"
        },
        {
          "internalType": "uint256",
          "name": "addedValue",
          "type": "uint256"
        }
      ],
      "name": "increaseAllowance",
      "outputs": [
        {
          "internalType": "bool",
          "name": "",
          "type": "bool"
        }
      ],
      "stateMutability": "nonpayable",
      "type": "function"
    },
    {
      "inputs": [],
      "name": "initialHigherFees",
      "outputs": [
        {
          "internalType": "uint256",
          "name": "marketing",
          "type": "uint256"
        },
        {
          "internalType": "uint256",
          "name": "charity",
          "type": "uint256"
        },
        {
          "internalType": "uint256",
          "name": "liquidity",
          "type": "uint256"
        },
        {
          "internalType": "uint256",
          "name": "lottery",
          "type": "uint256"
        }
      ],
      "stateMutability": "view",
      "type": "function"
    },
    {
      "inputs": [],
      "name": "initialLowerFees",
      "outputs": [
        {
          "internalType": "uint256",
          "name": "marketing",
          "type": "uint256"
        },
        {
          "internalType": "uint256",
          "name": "charity",
          "type": "uint256"
        },
        {
          "internalType": "uint256",
          "name": "liquidity",
          "type": "uint256"
        },
        {
          "internalType": "uint256",
          "name": "lottery",
          "type": "uint256"
        }
      ],
      "stateMutability": "view",
      "type": "function"
    },
    {
      "inputs": [],
      "name": "initialize",
      "outputs": [],
      "stateMutability": "nonpayable",
      "type": "function"
    },
    {
      "inputs": [
        {
          "internalType": "address",
          "name": "",
          "type": "address"
        }
      ],
      "name": "isCharityAddress",
      "outputs": [
        {
          "internalType": "bool",
          "name": "",
          "type": "bool"
        }
      ],
      "stateMutability": "view",
      "type": "function"
    },
    {
      "inputs": [
        {
          "internalType": "address",
          "name": "",
          "type": "address"
        }
      ],
      "name": "isFeeFree",
      "outputs": [
        {
          "internalType": "bool",
          "name": "",
          "type": "bool"
        }
      ],
      "stateMutability": "view",
      "type": "function"
    },
    {
      "inputs": [
        {
          "internalType": "address",
          "name": "",
          "type": "address"
        }
      ],
      "name": "lastTransferTime",
      "outputs": [
        {
          "internalType": "uint256",
          "name": "",
          "type": "uint256"
        }
      ],
      "stateMutability": "view",
      "type": "function"
    },
    {
      "inputs": [],
      "name": "liquidityQuantum",
      "outputs": [
        {
          "internalType": "uint256",
          "name": "",
          "type": "uint256"
        }
      ],
      "stateMutability": "view",
      "type": "function"
    },
    {
      "inputs": [],
      "name": "liquify",
      "outputs": [],
      "stateMutability": "nonpayable",
      "type": "function"
    },
    {
      "inputs": [],
      "name": "lowerFees",
      "outputs": [
        {
          "internalType": "uint256",
          "name": "marketing",
          "type": "uint256"
        },
        {
          "internalType": "uint256",
          "name": "charity",
          "type": "uint256"
        },
        {
          "internalType": "uint256",
          "name": "liquidity",
          "type": "uint256"
        },
        {
          "internalType": "uint256",
          "name": "lottery",
          "type": "uint256"
        }
      ],
      "stateMutability": "view",
      "type": "function"
    },
    {
      "inputs": [],
      "name": "maxTransferAmount",
      "outputs": [
        {
          "internalType": "uint256",
          "name": "",
          "type": "uint256"
        }
      ],
      "stateMutability": "view",
      "type": "function"
    },
    {
      "inputs": [],
      "name": "minHoldTimeSec",
      "outputs": [
        {
          "internalType": "uint256",
          "name": "",
          "type": "uint256"
        }
      ],
      "stateMutability": "view",
      "type": "function"
    },
    {
      "inputs": [],
      "name": "name",
      "outputs": [
        {
          "internalType": "string",
          "name": "",
          "type": "string"
        }
      ],
      "stateMutability": "view",
      "type": "function"
    },
    {
      "inputs": [],
      "name": "operator",
      "outputs": [
        {
          "internalType": "address",
          "name": "",
          "type": "address"
        }
      ],
      "stateMutability": "view",
      "type": "function"
    },
    {
      "inputs": [],
      "name": "owner",
      "outputs": [
        {
          "internalType": "address",
          "name": "",
          "type": "address"
        }
      ],
      "stateMutability": "view",
      "type": "function"
    },
    {
      "inputs": [],
      "name": "pancakePair",
      "outputs": [
        {
          "internalType": "address",
          "name": "",
          "type": "address"
        }
      ],
      "stateMutability": "view",
      "type": "function"
    },
    {
      "inputs": [],
      "name": "pancakeRouter",
      "outputs": [
        {
          "internalType": "contract IPancakeRouter02",
          "name": "",
          "type": "address"
        }
      ],
      "stateMutability": "view",
      "type": "function"
    },
    {
      "inputs": [
        {
          "internalType": "address",
          "name": "_charityAddress",
          "type": "address"
        }
      ],
      "name": "preferCharityAddress",
      "outputs": [],
      "stateMutability": "nonpayable",
      "type": "function"
    },
    {
      "inputs": [
        {
          "internalType": "address",
          "name": "",
          "type": "address"
        }
      ],
      "name": "preferredCharityAddress",
      "outputs": [
        {
          "internalType": "address",
          "name": "",
          "type": "address"
        }
      ],
      "stateMutability": "view",
      "type": "function"
    },
    {
      "inputs": [
        {
          "internalType": "address",
          "name": "_charityAddress",
          "type": "address"
        }
      ],
      "name": "removeCharityAddress",
      "outputs": [],
      "stateMutability": "nonpayable",
      "type": "function"
    },
    {
      "inputs": [],
      "name": "renounceOwnership",
      "outputs": [],
      "stateMutability": "nonpayable",
      "type": "function"
    },
    {
      "inputs": [
        {
          "internalType": "bool",
          "name": "lowerNotHigher",
          "type": "bool"
        }
      ],
      "name": "restoreFees",
      "outputs": [],
      "stateMutability": "nonpayable",
      "type": "function"
    },
    {
      "inputs": [
        {
          "components": [
            {
              "internalType": "address",
              "name": "marketing",
              "type": "address"
            },
            {
              "internalType": "address",
              "name": "charity",
              "type": "address"
            },
            {
              "internalType": "address",
              "name": "liquidity",
              "type": "address"
            },
            {
              "internalType": "address",
              "name": "lottery",
              "type": "address"
            }
          ],
          "internalType": "struct Pledge07Up.Beneficiaries",
          "name": "_beneficiaries",
          "type": "tuple"
        }
      ],
      "name": "setBeneficiaries",
      "outputs": [],
      "stateMutability": "nonpayable",
      "type": "function"
    },
    {
      "inputs": [
        {
          "components": [
            {
              "internalType": "uint256",
              "name": "marketing",
              "type": "uint256"
            },
            {
              "internalType": "uint256",
              "name": "charity",
              "type": "uint256"
            },
            {
              "internalType": "uint256",
              "name": "liquidity",
              "type": "uint256"
            },
            {
              "internalType": "uint256",
              "name": "lottery",
              "type": "uint256"
            }
          ],
          "internalType": "struct Pledge07Up.Fees",
          "name": "fees",
          "type": "tuple"
        },
        {
          "internalType": "bool",
          "name": "lowerNotHigher",
          "type": "bool"
        }
      ],
      "name": "setFees",
      "outputs": [],
      "stateMutability": "nonpayable",
      "type": "function"
    },
    {
      "inputs": [
        {
          "internalType": "address",
          "name": "_charityAddress",
          "type": "address"
        }
      ],
      "name": "setGeneralCharityAddress",
      "outputs": [],
      "stateMutability": "nonpayable",
      "type": "function"
    },
    {
      "inputs": [
        {
          "internalType": "uint256",
          "name": "_maxTransferAmount",
          "type": "uint256"
        }
      ],
      "name": "setMaxTransferAmount",
      "outputs": [],
      "stateMutability": "nonpayable",
      "type": "function"
    },
    {
      "inputs": [
        {
          "internalType": "uint256",
          "name": "_minHoldTimeSec",
          "type": "uint256"
        }
      ],
      "name": "setMinHoldTimeSec",
      "outputs": [],
      "stateMutability": "nonpayable",
      "type": "function"
    },
    {
      "inputs": [],
      "name": "symbol",
      "outputs": [
        {
          "internalType": "string",
          "name": "",
          "type": "string"
        }
      ],
      "stateMutability": "view",
      "type": "function"
    },
    {
      "inputs": [
        {
          "internalType": "bool",
          "name": "_autoLiquify",
          "type": "bool"
        }
      ],
      "name": "toLiquify",
      "outputs": [],
      "stateMutability": "nonpayable",
      "type": "function"
    },
    {
      "inputs": [],
      "name": "totalSupply",
      "outputs": [
        {
          "internalType": "uint256",
          "name": "",
          "type": "uint256"
        }
      ],
      "stateMutability": "view",
      "type": "function"
    },
    {
      "inputs": [
        {
          "internalType": "address",
          "name": "recipient",
          "type": "address"
        },
        {
          "internalType": "uint256",
          "name": "amount",
          "type": "uint256"
        }
      ],
      "name": "transfer",
      "outputs": [
        {
          "internalType": "bool",
          "name": "",
          "type": "bool"
        }
      ],
      "stateMutability": "nonpayable",
      "type": "function"
    },
    {
      "inputs": [
        {
          "internalType": "address",
          "name": "sender",
          "type": "address"
        },
        {
          "internalType": "address",
          "name": "recipient",
          "type": "address"
        },
        {
          "internalType": "uint256",
          "name": "amount",
          "type": "uint256"
        }
      ],
      "name": "transferFrom",
      "outputs": [
        {
          "internalType": "bool",
          "name": "",
          "type": "bool"
        }
      ],
      "stateMutability": "nonpayable",
      "type": "function"
    },
    {
      "inputs": [
        {
          "internalType": "address",
          "name": "newOwner",
          "type": "address"
        }
      ],
      "name": "transferOwnership",
      "outputs": [],
      "stateMutability": "nonpayable",
      "type": "function"
    },
    {
      "stateMutability": "payable",
      "type": "receive"
    }
  ],
  "bytecode": "0x608060405234801561001057600080fd5b506143ab806100206000396000f3fe60806040526004361061042a5760003560e01c8063715018a611610229578063a9059cbb1161012e578063c0b9cd6d116100b6578063dd62ed3e1161007a578063dd62ed3e14610b02578063f2fde38b14610b22578063f5896bc714610b42578063fc1b311314610b62578063ff9d6d8614610b7757610431565b8063c0b9cd6d14610aa3578063c21ebd0714610ac3578063cb4c5f1714610ad8578063cb9598c314610aed578063d9e197bb1461098557610431565b8063b562f3a7116100fd578063b562f3a714610a24578063b8c9d25c14610a39578063bb5d6e5614610a4e578063be1d6e7e14610a63578063be3cafd214610a8357610431565b8063a9059cbb146109da578063a9e75723146109fa578063ae4c438e146107c8578063b21f50a114610a0f57610431565b8063943ffc59116101b15780639f28645d116101805780639f28645d14610945578063a1080c1214610965578063a41cfc9314610985578063a457c2d71461099a578063a890e9cc146109ba57610431565b8063943ffc59146108db57806395d89b41146108f057806398da0179146109055780639e36eda61461092557610431565b80638129fc1c116101f85780638129fc1c14610867578063893d20e81461087c5780638bf55409146108915780638da5cb5b146108b157806391212e47146108c657610431565b8063715018a61461081257806371f94b6e146107dd578063788fd8e51461082757806379cc67901461084757610431565b80632793fde91161032f578063413b1cb5116102b7578063570ca73511610286578063570ca7351461079e57806364d9208e146107b35780636800a3b2146107c85780636e60eec7146107dd57806370a08231146107f257610431565b8063413b1cb51461073e57806342966c681461075e57806350cb82c614610629578063536cf2251461077e57610431565b80632e7ac412116102fe5780632e7ac412146106bf5780632ff2e9dc146106d45780632ffe1a6f146106e9578063313ce56714610709578063395093511461071e57610431565b80632793fde91461065e57806329934e28146106735780632a0897d6146106885780632e0f26251461069d57610431565b806318160ddd116103b25780631bc96b9c116103815780631bc96b9c146105cf5780631d29bd5a146105e45780631df97d6414610609578063202a04791461062957806323b872dd1461063e57610431565b806318160ddd14610560578063195f404a14610575578063198acaa3146105955780631a289938146105ba57610431565b806306fdde03116103f957806306fdde03146104ba57806307d5707c146104dc578063095ea7b3146104f15780630d2d8a311461051e5780630e33fbbf1461053e57610431565b8063022f9fa41461043657806303b04c581461046157806306394c9b1461048357806306c66ffe146104a557610431565b3661043157005b600080fd5b34801561044257600080fd5b5061044b610b97565b6040516104589190614211565b60405180910390f35b34801561046d57600080fd5b50610476610b9f565b60405161045891906141b6565b34801561048f57600080fd5b506104a361049e3660046136c1565b610c00565b005b3480156104b157600080fd5b506104a3610c51565b3480156104c657600080fd5b506104cf610c5b565b6040516104589190613a4e565b3480156104e857600080fd5b5061044b610cf1565b3480156104fd57600080fd5b5061051161050c3660046137a2565b610cf7565b6040516104589190613a43565b34801561052a57600080fd5b5061044b6105393660046136c1565b610d15565b34801561054a57600080fd5b50610553610d27565b6040516104589190613994565b34801561056c57600080fd5b5061044b610d3f565b34801561058157600080fd5b506105536105903660046136c1565b610d45565b3480156105a157600080fd5b506105aa610d60565b604051610458949392919061428a565b3480156105c657600080fd5b50610511610d6f565b3480156105db57600080fd5b5061044b610d78565b3480156105f057600080fd5b506105f9610d86565b60405161045894939291906139fd565b34801561061557600080fd5b506104a36106243660046136c1565b610daa565b34801561063557600080fd5b5061044b610e1f565b34801561064a57600080fd5b50610511610659366004613731565b610e25565b34801561066a57600080fd5b5061044b610eb5565b34801561067f57600080fd5b506105aa610ebc565b34801561069457600080fd5b506105aa610ecb565b3480156106a957600080fd5b506106b2610eda565b60405161045891906142a5565b3480156106cb57600080fd5b50610553610edf565b3480156106e057600080fd5b5061044b610eee565b3480156106f557600080fd5b506104a3610704366004613771565b610f00565b34801561071557600080fd5b506106b2610f4d565b34801561072a57600080fd5b506105116107393660046137a2565b610f52565b34801561074a57600080fd5b506104a3610759366004613851565b610f9d565b34801561076a57600080fd5b506104a3610779366004613904565b61107d565b34801561078a57600080fd5b506104a36107993660046137cd565b611091565b3480156107aa57600080fd5b506105536110e3565b3480156107bf57600080fd5b506104a36110f2565b3480156107d457600080fd5b5061044b61124f565b3480156107e957600080fd5b5061044b611255565b3480156107fe57600080fd5b5061044b61080d3660046136c1565b61125b565b34801561081e57600080fd5b506104a361127a565b34801561083357600080fd5b506104a36108423660046136c1565b6112c3565b34801561085357600080fd5b506104a36108623660046137a2565b61130b565b34801561087357600080fd5b506104a361135e565b34801561088857600080fd5b50610553611447565b34801561089d57600080fd5b506104a36108ac366004613904565b611456565b3480156108bd57600080fd5b5061055361149a565b3480156108d257600080fd5b506104a36114af565b3480156108e757600080fd5b5061051161151f565b3480156108fc57600080fd5b506104cf61152d565b34801561091157600080fd5b506104a36109203660046137cd565b61158e565b34801561093157600080fd5b506105116109403660046136c1565b611660565b34801561095157600080fd5b506104a36109603660046137a2565b611675565b34801561097157600080fd5b506104a36109803660046136c1565b61169f565b34801561099157600080fd5b5061044b6116e7565b3480156109a657600080fd5b506105116109b53660046137a2565b6116ec565b3480156109c657600080fd5b506104a36109d5366004613904565b611765565b3480156109e657600080fd5b506105116109f53660046137a2565b6117a9565b348015610a0657600080fd5b5061044b6117bd565b348015610a1b57600080fd5b5061044b6117c3565b348015610a3057600080fd5b506104a36117c9565b348015610a4557600080fd5b5061055361183c565b348015610a5a57600080fd5b506105aa61184b565b348015610a6f57600080fd5b506104a3610a7e3660046137e9565b61185a565b348015610a8f57600080fd5b506104a3610a9e3660046136c1565b6119c3565b348015610aaf57600080fd5b506104a3610abe3660046136c1565b611d24565b348015610acf57600080fd5b50610553611dde565b348015610ae457600080fd5b5061044b611ded565b348015610af957600080fd5b506104a3611df4565b348015610b0e57600080fd5b5061044b610b1d3660046136f9565b611e3b565b348015610b2e57600080fd5b506104a3610b3d3660046136c1565b611e66565b348015610b4e57600080fd5b50610511610b5d3660046136c1565b611ed4565b348015610b6e57600080fd5b5061044b611ee8565b348015610b8357600080fd5b506104a3610b923660046136f9565b611ef9565b6301e1855881565b610ba7613606565b6016546001600160a01b0390811660009081526001602081815260408084205486526017548516845282825280842054868301526018548516845282825280842054868201526019549094168352522054606082015290565b6001600160a01b038116610c2f5760405162461bcd60e51b8152600401610c2690613ad7565b60405180910390fd5b602f80546001600160a01b0319166001600160a01b0392909216919091179055565b610c596110f2565b565b60048054604080516020601f6002600019610100600188161502019095169490940493840181900481028201810190925282815260609390929091830182828015610ce75780601f10610cbc57610100808354040283529160200191610ce7565b820191906000526020600020905b815481529060010190602001808311610cca57829003601f168201915b5050505050905090565b601c5481565b6000610d0b610d04611f4a565b8484611f4e565b5060015b92915050565b60236020526000908152604090205481565b738887df2f38888117c0048eaf9e26174f2e75b8eb81565b60035490565b6021602052600090815260409020546001600160a01b031681565b600e54600f5460105460115484565b60245460ff1681565b69152d02c7e14af680000081565b6016546017546018546019546001600160a01b039384169392831692918216911684565b6001600160a01b03811615610df0576001600160a01b038116600090815260208052604090205460ff16610df05760405162461bcd60e51b8152600401610c2690613ce6565b33600090815260216020526040902080546001600160a01b0319166001600160a01b0392909216919091179055565b61017781565b6000610e32848484612002565b6001600160a01b038416600090815260026020526040812081610e53611f4a565b6001600160a01b03166001600160a01b0316815260200190815260200160002054905082811015610e965760405162461bcd60e51b8152600401610c2690613e47565b610eaa85610ea2611f4a565b858403611f4e565b506001949350505050565b6298968081565b60065460075460085460095484565b600a54600b54600c54600d5484565b601281565b601f546001600160a01b031681565b6d314dc6448d9338c15b0a0000000081565b610f08611f4a565b6001600160a01b0316610f1961149a565b6001600160a01b031614610f3f5760405162461bcd60e51b8152600401610c2690613e8f565b610f4982826121f3565b5050565b601290565b6000610d0b610f5f611f4a565b848460026000610f6d611f4a565b6001600160a01b03908116825260208083019390935260409182016000908120918b168152925290205401611f4e565b610fa5611f4a565b6001600160a01b0316610fb661149a565b6001600160a01b031614610fdc5760405162461bcd60e51b8152600401610c2690613e8f565b610fe582612249565b508015611035578151600a9081556020830151600b55604080840151600c556060840151600d5551600080516020614313833981519152916110289184906141e1565b60405180910390a1610f49565b815160129081556020830151601355604080840151601455606084015160155551600080516020614313833981519152916110719184906141e1565b60405180910390a15050565b61108e611088611f4a565b82612341565b50565b611099611f4a565b6001600160a01b03166110aa61149a565b6001600160a01b0316146110d05760405162461bcd60e51b8152600401610c2690613e8f565b6024805460ff1916911515919091179055565b602f546001600160a01b031681565b6110fa611f4a565b6001600160a01b031661110b61149a565b6001600160a01b0316146111315760405162461bcd60e51b8152600401610c2690613e8f565b6040805160808082018352610177808352607d6020808501829052848601839052606094850182905260068390556007829055600883905560098290558551938401865282845283018190529382015290810191909152611193906001610f9d565b60408051608080820183526105dc8083526101f460208085018290528486018390526060948501829052600e839055600f8290556010839055601182905585519384018652828452830181905293820152908101919091526111f6906000610f9d565b601f80546001600160a01b031916738887df2f38888117c0048eaf9e26174f2e75b8eb1790556c0c9f2c9cd04674edea40000000601a5569152d02c7e14af6800000601b556301e18558601c556024805460ff19169055565b6105dc81565b6101f481565b6001600160a01b0381166000908152600160205260409020545b919050565b611282611f4a565b6001600160a01b031661129361149a565b6001600160a01b0316146112b95760405162461bcd60e51b8152600401610c2690613e8f565b610c59600061241f565b6112cb611f4a565b6001600160a01b03166112dc61149a565b6001600160a01b0316146113025760405162461bcd60e51b8152600401610c2690613e8f565b61108e8161247a565b600061131983610b1d611f4a565b90508181101561133b5760405162461bcd60e51b8152600401610c2690613efb565b61134f83611347611f4a565b848403611f4e565b6113598383612341565b505050565b600054610100900460ff1680611377575060005460ff16155b6113935760405162461bcd60e51b8152600401610c2690613d54565b600054610100900460ff161580156113be576000805460ff1961ff0019909116610100171660011790555b6113c66124c0565b6040805180820182526014815273283632b233b2902aba34b634ba3c902a37b5b2b760611b60208083019190915282518084019093526003835262504f4360e81b9083015261142b916d314dc6448d9338c15b0a0000000061142661149a565b612530565b611433610c51565b801561108e576000805461ff001916905550565b600061145161149a565b905090565b61145e611f4a565b6001600160a01b031661146f61149a565b6001600160a01b0316146114955760405162461bcd60e51b8152600401610c2690613e8f565b601a55565b6000546201000090046001600160a01b031690565b600054610100900460ff16806114c8575060005460ff16155b6114e45760405162461bcd60e51b8152600401610c2690613d54565b600054610100900460ff1615801561150f576000805460ff1961ff0019909116610100171660011790555b6115176124c0565b6114336117c9565b602454610100900460ff1681565b60058054604080516020601f6002600019610100600188161502019095169490940493840181900481028201810190925282815260609390929091830182828015610ce75780601f10610cbc57610100808354040283529160200191610ce7565b611596611f4a565b6001600160a01b03166115a761149a565b6001600160a01b0316146115cd5760405162461bcd60e51b8152600401610c2690613e8f565b6001811515141561161d57600654600a908155600754600b55600854600c55600954600d55604051600080516020614313833981519152916116109184906141e1565b60405180910390a161108e565b600e546012908155600f54601355601054601455601154601555604051600080516020614313833981519152916116559184906141e1565b60405180910390a150565b60226020526000908152604090205460ff1681565b6001600160a01b039190911660009081526023602052604090206201518090910242036001019055565b6116a7611f4a565b6001600160a01b03166116b861149a565b6001600160a01b0316146116de5760405162461bcd60e51b8152600401610c2690613e8f565b61108e816125d5565b607d81565b600080600260006116fb611f4a565b6001600160a01b03908116825260208083019390935260409182016000908120918816815292529020549050828110156117475760405162461bcd60e51b8152600401610c269061413a565b61175b611752611f4a565b85858403611f4e565b5060019392505050565b61176d611f4a565b6001600160a01b031661177e61149a565b6001600160a01b0316146117a45760405162461bcd60e51b8152600401610c2690613e8f565b601c55565b6000610d0b6117b6611f4a565b8484612002565b601a5481565b601b5481565b600054610100900460ff16806117e2575060005460ff16155b6117fe5760405162461bcd60e51b8152600401610c2690613d54565b600054610100900460ff16158015611433576000805460ff1961ff001990911661010017166001179055801561108e576000805461ff001916905550565b601e546001600160a01b031681565b60125460135460145460155484565b611862611f4a565b6001600160a01b031661187361149a565b6001600160a01b0316146118995760405162461bcd60e51b8152600401610c2690613e8f565b60408101516001600160a01b031630146118c55760405162461bcd60e51b8152600401610c2690613f80565b6017546118dc906001600160a01b031660006121f3565b6016546118f3906001600160a01b031660006121f3565b60195461190a906001600160a01b031660006121f3565b601854611921906001600160a01b031660006121f3565b8051601680546001600160a01b03199081166001600160a01b03938416179091556020830151601780548316828516179055604084015160188054841691851691909117905560608401516019805490931693169290921790556119869060016121f3565b80516119939060016121f3565b6119a2816060015160016121f3565b6119b1816040015160016121f3565b506024805461ff001916610100179055565b6119cb611f4a565b6001600160a01b03166119dc61149a565b6001600160a01b031614611a025760405162461bcd60e51b8152600401610c2690613e8f565b601d80546001600160a01b0319166001600160a01b0383169081179091556040805163c45a015560e01b8152905183929163c45a0155916004808301926020929190829003018186803b158015611a5857600080fd5b505afa158015611a6c573d6000803e3d6000fd5b505050506040513d601f19601f82011682018060405250810190611a9091906136dd565b6001600160a01b031663e6a4390530836001600160a01b031663ad5c46486040518163ffffffff1660e01b815260040160206040518083038186803b158015611ad857600080fd5b505afa158015611aec573d6000803e3d6000fd5b505050506040513d601f19601f82011682018060405250810190611b1091906136dd565b6040518363ffffffff1660e01b8152600401611b2d9291906139a8565b60206040518083038186803b158015611b4557600080fd5b505afa158015611b59573d6000803e3d6000fd5b505050506040513d601f19601f82011682018060405250810190611b7d91906136dd565b601e80546001600160a01b0319166001600160a01b03928316179081905516610f4957806001600160a01b031663c45a01556040518163ffffffff1660e01b815260040160206040518083038186803b158015611bd957600080fd5b505afa158015611bed573d6000803e3d6000fd5b505050506040513d601f19601f82011682018060405250810190611c1191906136dd565b6001600160a01b031663c9c6539630836001600160a01b031663ad5c46486040518163ffffffff1660e01b815260040160206040518083038186803b158015611c5957600080fd5b505afa158015611c6d573d6000803e3d6000fd5b505050506040513d601f19601f82011682018060405250810190611c9191906136dd565b6040518363ffffffff1660e01b8152600401611cae9291906139a8565b602060405180830381600087803b158015611cc857600080fd5b505af1158015611cdc573d6000803e3d6000fd5b505050506040513d601f19601f82011682018060405250810190611d0091906136dd565b601e80546001600160a01b0319166001600160a01b03929092169190911790555050565b611d2c611f4a565b6001600160a01b0316611d3d61149a565b6001600160a01b031614611d635760405162461bcd60e51b8152600401610c2690613e8f565b601f546001600160a01b031615611d9657601f546001600160a01b031660009081526020805260409020805460ff191690555b601f80546001600160a01b0319166001600160a01b0383169081179091551561108e576001600160a01b03811660009081526020805260409020805460ff1916600117905550565b601d546001600160a01b031681565b620186a081565b611dfc611f4a565b6001600160a01b0316611e0d61149a565b6001600160a01b031614611e335760405162461bcd60e51b8152600401610c2690613e8f565b610c5961261e565b6001600160a01b03918216600090815260026020908152604080832093909416825291909152205490565b611e6e611f4a565b6001600160a01b0316611e7f61149a565b6001600160a01b031614611ea55760405162461bcd60e51b8152600401610c2690613e8f565b6001600160a01b038116611ecb5760405162461bcd60e51b8152600401610c2690613b79565b61108e8161241f565b602080526000908152604090205460ff1681565b6c0c9f2c9cd04674edea4000000081565b611f01611f4a565b6001600160a01b0316611f1261149a565b6001600160a01b031614611f385760405162461bcd60e51b8152600401610c2690613e8f565b611f418261247a565b610f49816125d5565b3390565b6001600160a01b038316611f745760405162461bcd60e51b8152600401610c2690613fee565b6001600160a01b038216611f9a5760405162461bcd60e51b8152600401610c2690613bbf565b6001600160a01b0380841660008181526002602090815260408083209487168084529490915290819020849055517f8c5be1e5ebec7d5bd14f71427d1e84f3dd0314c0f7b2291e5b200ac8c7c3b92590611ff5908590614211565b60405180910390a3505050565b6001600160a01b0383166120285760405162461bcd60e51b8152600401610c2690613dd9565b6001600160a01b03821661204e5760405162461bcd60e51b8152600401610c26906140bf565b612059838383611359565b6001600160a01b038316600090815260016020526040902054818110156120925760405162461bcd60e51b8152600401610c2690613b42565b61209c8484612a0d565b6120c257601a548211156120c25760405162461bcd60e51b8152600401610c2690613c2f565b6001600160a01b0384166000908152600160205260409020805483900390556120eb8484612aa4565b61215c5760245460ff61010090910416151560011461211c5760405162461bcd60e51b8152600401610c2690613fb7565b6121268484612abe565b6121308483612bfa565b6001600160a01b0380861660009081526023602052604080822042908190559287168252902055909103905b6001600160a01b03808416600081815260016020526040908190208054860190555190918616906000805160206143568339815191529061219e908690614211565b60405180910390a360245460ff1680156121c65750601e546001600160a01b03858116911614155b80156121e05750601e546001600160a01b03848116911614155b156121ed576121ed61261e565b50505050565b6001600160a01b03821660009081526022602052604090819020805460ff1916831515179055517fb6915003dd74438aea93a39ca67188c6704fdde74bb059bdc965fde3e3f6768c906110719084908490613a28565b80516000906298968010156122705760405162461bcd60e51b8152600401610c2690614032565b81516298968010156122945760405162461bcd60e51b8152600401610c2690613ec4565b60208201516298968010156122bb5760405162461bcd60e51b8152600401610c2690613e10565b60608201516298968010156122e25760405162461bcd60e51b8152600401610c2690614088565b60408201516298968010156123095760405162461bcd60e51b8152600401610c2690613d1d565b506040810151606082015160208301518351010101629896808111156112755760405162461bcd60e51b8152600401610c2690613c8d565b6001600160a01b0382166123675760405162461bcd60e51b8152600401610c2690613f3f565b61237382600083611359565b6001600160a01b038216600090815260016020526040902054818110156123ac5760405162461bcd60e51b8152600401610c2690613b00565b6123b68183612c4b565b6001600160a01b0384166000908152600160205260409020556003546123dc9083612c4b565b6003556040516000906001600160a01b038516906000805160206143568339815191529061240b908690614211565b60405180910390a361135983600084611359565b600080546001600160a01b038381166201000081810262010000600160b01b0319851617855560405193049190911692909183917f8be0079c531659141344cd1fd0a4f28419497f9722a3daafe3b4186f6b6457e091a35050565b6001600160a01b0381166124a05760405162461bcd60e51b8152600401610c2690613da2565b6001600160a01b031660009081526020805260409020805460ff19169055565b600054610100900460ff16806124d9575060005460ff16155b6124f55760405162461bcd60e51b8152600401610c2690613d54565b600054610100900460ff16158015612520576000805460ff1961ff0019909116610100171660011790555b6125286117c9565b611433612c6e565b600054610100900460ff1680612549575060005460ff16155b6125655760405162461bcd60e51b8152600401610c2690613d54565b600054610100900460ff16158015612590576000805460ff1961ff0019909116610100171660011790555b6125986117c9565b6125a0612c6e565b6125aa8585612cde565b6125b2610c59565b6125bc8383612d05565b80156125ce576000805461ff00191690555b5050505050565b6001600160a01b0381166125fb5760405162461bcd60e51b8152600401610c2690613da2565b6001600160a01b031660009081526020805260409020805460ff19166001179055565b60245462010000900460ff16156126475760405162461bcd60e51b8152600401610c269061405c565b6024805462ff00001916620100001790556018546001600160a01b0316600090815260016020526040902054601b5447919081106129fd57601b549050600080600080601e60009054906101000a90046001600160a01b03166001600160a01b0316630dfe16816040518163ffffffff1660e01b815260040160206040518083038186803b1580156126d857600080fd5b505afa1580156126ec573d6000803e3d6000fd5b505050506040513d601f19601f8201168201806040525081019061271091906136dd565b9050306001600160a01b03821614156127bf57601e60009054906101000a90046001600160a01b03166001600160a01b0316630902f1ac6040518163ffffffff1660e01b815260040160606040518083038186803b15801561277157600080fd5b505afa158015612785573d6000803e3d6000fd5b505050506040513d601f19601f820116820180604052508101906127a991906138b0565b506001600160701b039182169450169150612857565b601e60009054906101000a90046001600160a01b03166001600160a01b0316630902f1ac6040518163ffffffff1660e01b815260040160606040518083038186803b15801561280d57600080fd5b505afa158015612821573d6000803e3d6000fd5b505050506040513d601f19601f8201168201806040525081019061284591906138b0565b506001600160701b0390811694501691505b6107ce83026107cc8161287b888702623ce9c0026128758380612d85565b01612dbc565b038161288357fe5b0494505050505061289381612f07565b30600090815260016020526040902054478284038582036128b48282613063565b3060009081526001602052604090205447888110156128e55760405162461bcd60e51b8152600401610c26906140f6565b612919604051806040016040528060138152602001714b0b6b7bab73a2a37a634b8bab4b33c901e9606d1b8152508961310e565b61293c604051806060016040528060238152602001614333602391398589613153565b61297c6040518060400160405280602081526020017f096574686572496e697469616c2c206574686572416674657253776170203d208152508a87613153565b6129b2604051806040016040528060138152602001714b2ba3432b9103932b6b0b4b73a32b9101e9606d1b8152508a830361310e565b7f93efcf28fbf701a930e0ad258987a2e4f08eb3aa99f9c02029e7ba049f69405f878a87038885038885036040516129ed949392919061428a565b60405180910390a1505050505050505b50506024805462ff000019169055565b6000612a188361319a565b80612a275750612a278261319a565b80612a625750612a3561149a565b6001600160a01b0316836001600160a01b0316148015612a625750601e546001600160a01b038381169116145b80612a9d5750601e546001600160a01b038481169116148015612a9d5750612a8861149a565b6001600160a01b0316826001600160a01b0316145b9392505050565b6000612aaf8361321a565b80612a275750612a278261321a565b6001600160a01b038116600090815260208052604090205460ff1615156001148015612b0257506001600160a01b0382811660009081526021602052604090205416155b15612b45576001600160a01b03808316600090815260216020526040902080549183166001600160a01b0319928316811790915560178054909216179055610f49565b601f54601780546001600160a01b0319166001600160a01b03928316179055828116600090815260216020526040902054168015801590612b9d57506001600160a01b038116600090815260208052604090205460ff165b15612bd2576001600160a01b03808416600090815260216020526040902054601780546001600160a01b031916919092161790555b6017546001600160a01b03166113595760405162461bcd60e51b8152600401610c2690613cbd565b601c546001600160a01b0383166000908152602360205260408120549091429190910310612c3657612c308383600a6016613299565b01610d0f565b612c44838360126016613299565b0192915050565b80820382811115610d0f5760405162461bcd60e51b8152600401610c2690613aa8565b600054610100900460ff1680612c87575060005460ff16155b612ca35760405162461bcd60e51b8152600401610c2690613d54565b600054610100900460ff16158015612cce576000805460ff1961ff0019909116610100171660011790555b611433612cd9611f4a565b61241f565b8151612cf190600490602085019061362e565b50805161135990600590602084019061362e565b600054610100900460ff1680612d1e575060005460ff16155b612d3a5760405162461bcd60e51b8152600401610c2690613d54565b600054610100900460ff16158015612d65576000805460ff1961ff0019909116610100171660011790555b612d6f8284613493565b8015611359576000805461ff0019169055505050565b6000811580612da057505080820282828281612d9d57fe5b04145b610d0f5760405162461bcd60e51b8152600401610c2690613c01565b600081612dcb57506000611275565b50600181600160801b8110612de55760409190911b9060801c5b680100000000000000008110612e005760209190911b9060401c5b6401000000008110612e175760109190911b9060201c5b620100008110612e2c5760089190911b9060101c5b6101008110612e405760049190911b9060081c5b60108110612e535760029190911b9060041c5b60088110612e6357600182901b91505b6001828481612e6e57fe5b048301901c91506001828481612e8057fe5b048301901c91506001828481612e9257fe5b048301901c91506001828481612ea457fe5b048301901c91506001828481612eb657fe5b048301901c91506001828481612ec857fe5b048301901c91506001828481612eda57fe5b048301901c91506000828481612eec57fe5b04905080831015612efd5782612eff565b805b949350505050565b60408051600280825260608083018452926020830190803683370190505090503081600081518110612f3557fe5b6001600160a01b03928316602091820292909201810191909152601d54604080516315ab88c960e31b81529051919093169263ad5c4648926004808301939192829003018186803b158015612f8957600080fd5b505afa158015612f9d573d6000803e3d6000fd5b505050506040513d601f19601f82011682018060405250810190612fc191906136dd565b81600181518110612fce57fe5b6001600160a01b039283166020918202929092010152601d54612ff49130911684611f4e565b601d5460405163791ac94760e01b81526001600160a01b039091169063791ac9479061302d90859060009086903090429060040161421a565b600060405180830381600087803b15801561304757600080fd5b505af115801561305b573d6000803e3d6000fd5b505050505050565b601d5461307b9030906001600160a01b031684611f4e565b601d546001600160a01b031663f305d71982308560008061309a61149a565b426040518863ffffffff1660e01b81526004016130bc969594939291906139c2565b6060604051808303818588803b1580156130d557600080fd5b505af11580156130e9573d6000803e3d6000fd5b50505050506040513d601f19601f820116820180604052508101906125ce919061391c565b610f498282604051602401613124929190613a61565b60408051601f198184030181529190526020810180516001600160e01b03166309710a9d60e41b179052613549565b61135983838360405160240161316b93929190613a83565b60408051601f198184030181529190526020810180516001600160e01b031663969cdd0360e01b179052613549565b6016546000906001600160a01b03838116911614806131c657506017546001600160a01b038381169116145b806131de57506018546001600160a01b038381169116145b806131f657506019546001600160a01b038381169116145b80610d0f5750506001600160a01b0316600090815260208052604090205460ff1690565b6001600160a01b03811660009081526022602052604081205460ff168061324e57506016546001600160a01b038381169116145b8061326657506017546001600160a01b038381169116145b8061327e57506018546001600160a01b038381169116145b80610d0f5750506019546001600160a01b0390811691161490565b6000806132c0620186a06132ba866000015488612d8590919063ffffffff16565b9061356a565b83546001600160a01b039081166000908152600160205260409081902080548401905585549051929350811691908816906000805160206143568339815191529061330c908590614211565b60405180910390a38082019150613337620186a06132ba866001015488612d8590919063ffffffff16565b600184810180546001600160a01b0390811660009081526020939093526040928390208054850190559054915192935090811691908816906000805160206143568339815191529061338a908590614211565b60405180910390a380820191506133b5620186a06132ba866003015488612d8590919063ffffffff16565b6003840180546001600160a01b039081166000908152600160205260409081902080548501905591549151929350908116919088169060008051602061435683398151915290613406908590614211565b60405180910390a38082019150613431620186a06132ba866002015488612d8590919063ffffffff16565b6002840180546001600160a01b039081166000908152600160205260409081902080548501905591549151929350908116919088169060008051602061435683398151915290613482908590614211565b60405180910390a301949350505050565b6001600160a01b0382166134b95760405162461bcd60e51b8152600401610c269061417f565b6134c560008383611359565b6003546134d290826135ac565b6003556001600160a01b0382166000908152600160205260409020546134f890826135ac565b6001600160a01b03831660008181526001602052604080822093909355915190919060008051602061435683398151915290613535908590614211565b60405180910390a3610f4960008383611359565b80516a636f6e736f6c652e6c6f67602083016000808483855afa5050505050565b6000612a9d83836040518060400160405280601a81526020017f536166654d6174683a206469766973696f6e206279207a65726f0000000000008152506135cf565b80820182811015610d0f5760405162461bcd60e51b8152600401610c2690613c5f565b600081836135f05760405162461bcd60e51b8152600401610c269190613a4e565b5060008385816135fc57fe5b0495945050505050565b6040518060800160405280600081526020016000815260200160008152602001600081525090565b828054600181600116156101000203166002900490600052602060002090601f016020900481019282601f1061366f57805160ff191683800117855561369c565b8280016001018555821561369c579182015b8281111561369c578251825591602001919060010190613681565b506136a89291506136ac565b5090565b5b808211156136a857600081556001016136ad565b6000602082840312156136d2578081fd5b8135612a9d816142da565b6000602082840312156136ee578081fd5b8151612a9d816142da565b6000806040838503121561370b578081fd5b8235613716816142da565b91506020830135613726816142da565b809150509250929050565b600080600060608486031215613745578081fd5b8335613750816142da565b92506020840135613760816142da565b929592945050506040919091013590565b60008060408385031215613783578182fd5b823561378e816142da565b915060208301358015158114613726578182fd5b600080604083850312156137b4578182fd5b82356137bf816142da565b946020939093013593505050565b6000602082840312156137de578081fd5b8135612a9d816142ef565b6000608082840312156137fa578081fd5b61380460806142b3565b823561380f816142da565b8152602083013561381f816142da565b60208201526040830135613832816142da565b60408201526060830135613845816142da565b60608201529392505050565b60008082840360a0811215613864578283fd5b6080811215613871578283fd5b5061387c60806142b3565b83358152602084013560208201526040840135604082015260608401356060820152809250506080830135613726816142ef565b6000806000606084860312156138c4578283fd5b83516138cf816142fd565b60208501519093506138e0816142fd565b604085015190925063ffffffff811681146138f9578182fd5b809150509250925092565b600060208284031215613915578081fd5b5035919050565b600080600060608486031215613930578283fd5b8351925060208401519150604084015190509250925092565b60008151808452815b8181101561396e57602081850181015186830182015201613952565b8181111561397f5782602083870101525b50601f01601f19169290920160200192915050565b6001600160a01b0391909116815260200190565b6001600160a01b0392831681529116602082015260400190565b6001600160a01b039687168152602081019590955260408501939093526060840191909152909216608082015260a081019190915260c00190565b6001600160a01b03948516815292841660208401529083166040830152909116606082015260800190565b6001600160a01b039290921682521515602082015260400190565b901515815260200190565b600060208252612a9d6020830184613949565b600060408252613a746040830185613949565b90508260208301529392505050565b600060608252613a966060830186613949565b60208301949094525060400152919050565b60208082526015908201527464732d6d6174682d7375622d756e646572666c6f7760581b604082015260600190565b6020808252600f908201526e496e76616c6964206164647265737360881b604082015260600190565b60208082526022908201527f45524332303a206275726e20616d6f756e7420657863656564732062616c616e604082015261636560f01b606082015260800190565b60208082526018908201527f5472616e7366657220657863656564732062616c616e63650000000000000000604082015260600190565b60208082526026908201527f4f776e61626c653a206e6577206f776e657220697320746865207a65726f206160408201526564647265737360d01b606082015260800190565b60208082526022908201527f45524332303a20617070726f766520746f20746865207a65726f206164647265604082015261737360f01b606082015260800190565b60208082526014908201527364732d6d6174682d6d756c2d6f766572666c6f7760601b604082015260600190565b602080825260169082015275151c985b9cd9995c88195e18d959591cc81b1a5b5a5d60521b604082015260600190565b60208082526014908201527364732d6d6174682d6164642d6f766572666c6f7760601b604082015260600190565b602080825260169082015275546f74616c20666565206f7574206f662072616e676560501b604082015260600190565b6020808252600f908201526e496e76616c6964206368617269747960881b604082015260600190565b60208082526019908201527f436861726974792061646472657373206e6f7420666f756e6400000000000000604082015260600190565b6020808252601a908201527f4c697175696469747920666565206f7574206f662072616e6765000000000000604082015260600190565b6020808252602e908201527f496e697469616c697a61626c653a20636f6e747261637420697320616c72656160408201526d191e481a5b9a5d1a585b1a5e995960921b606082015260800190565b60208082526017908201527f496e76616c696420636861726974792061646472657373000000000000000000604082015260600190565b6020808252601a908201527f5472616e736665722066726f6d207a65726f2061646472657373000000000000604082015260600190565b60208082526018908201527f4368617269747920666565206f7574206f662072616e67650000000000000000604082015260600190565b60208082526028908201527f45524332303a207472616e7366657220616d6f756e74206578636565647320616040820152676c6c6f77616e636560c01b606082015260800190565b6020808252818101527f4f776e61626c653a2063616c6c6572206973206e6f7420746865206f776e6572604082015260600190565b6020808252601a908201527f4d61726b6574696e6720666565206f7574206f662072616e6765000000000000604082015260600190565b60208082526024908201527f45524332303a206275726e20616d6f756e74206578636565647320616c6c6f77604082015263616e636560e01b606082015260800190565b60208082526021908201527f45524332303a206275726e2066726f6d20746865207a65726f206164647265736040820152607360f81b606082015260800190565b60208082526017908201527f57726f6e67206c6971756964697479206163636f756e74000000000000000000604082015260600190565b60208082526019908201527f4665652062656e65666963696172696573206e6f742073657400000000000000604082015260600190565b60208082526024908201527f45524332303a20617070726f76652066726f6d20746865207a65726f206164646040820152637265737360e01b606082015260800190565b60208082526010908201526f466565206f7574206f662072616e676560801b604082015260600190565b6020808252601290820152712732b9ba32b2103634b8bab4b33cb4b7339760711b604082015260600190565b60208082526018908201527f4c6f747465727920666565206f7574206f662072616e67650000000000000000604082015260600190565b60208082526018908201527f5472616e7366657220746f207a65726f20616464726573730000000000000000604082015260600190565b60208082526024908201527f094574686572206c6f737320696e2061646472657373287468697329206163636040820152631bdd5b9d60e21b606082015260800190565b60208082526025908201527f45524332303a2064656372656173656420616c6c6f77616e63652062656c6f77604082015264207a65726f60d81b606082015260800190565b6020808252601f908201527f45524332303a206d696e7420746f20746865207a65726f206164647265737300604082015260600190565b8151815260208083015190820152604080830151908201526060918201519181019190915260800190565b82548152600183015460208201526002830154604082015260039092015460608301521515608082015260a00190565b90815260200190565b600060a082018783526020878185015260a0604085015281875180845260c0860191508289019350845b818110156142695784516001600160a01b031683529383019391830191600101614244565b50506001600160a01b03969096166060850152505050608001529392505050565b93845260208401929092526040830152606082015260800190565b60ff91909116815260200190565b60405181810167ffffffffffffffff811182821017156142d257600080fd5b604052919050565b6001600160a01b038116811461108e57600080fd5b801515811461108e57600080fd5b6001600160701b038116811461108e57600080fdfe2553647d01733860e672e0ccc1dc4d0a9095944137d20536505911a8496acd3709203d20746f6b656e546f4164644c6971202b20746f6b656e466f7245746865723a20ddf252ad1be2c89b69c2b068fc378daa952ba7f163c4a11628f55a4df523b3efa264697066735822122069b275bbb75b32128f1541967be4e133404bf677534dc338e8fe6c56b826730264736f6c634300060c0033",
  "linkReferences": {},
  "deployedLinkReferences": {}
}