{
  "_format": "hh-sol-artifact-1",
  "contractName": "Pledge07Up",
  "sourceName": "contracts/Pledge07Up.sol",
  "abi": [
    {
      "anonymous": false,
      "inputs": [
        {
          "indexed": true,
          "internalType": "address",
          "name": "owner",
          "type": "address"
        },
        {
          "indexed": true,
          "internalType": "address",
          "name": "spender",
          "type": "address"
        },
        {
          "indexed": false,
          "internalType": "uint256",
          "name": "value",
          "type": "uint256"
        }
      ],
      "name": "Approval",
      "type": "event"
    },
    {
      "anonymous": false,
      "inputs": [
        {
          "indexed": false,
          "internalType": "address",
          "name": "user",
          "type": "address"
        },
        {
          "indexed": false,
          "internalType": "bool",
          "name": "free",
          "type": "bool"
        }
      ],
      "name": "FreeFromFees",
      "type": "event"
    },
    {
      "anonymous": false,
      "inputs": [
        {
          "indexed": true,
          "internalType": "address",
          "name": "previousOwner",
          "type": "address"
        },
        {
          "indexed": true,
          "internalType": "address",
          "name": "newOwner",
          "type": "address"
        }
      ],
      "name": "OwnershipTransferred",
      "type": "event"
    },
    {
      "anonymous": false,
      "inputs": [
        {
          "components": [
            {
              "internalType": "uint256",
              "name": "marketing",
              "type": "uint256"
            },
            {
              "internalType": "uint256",
              "name": "charity",
              "type": "uint256"
            },
            {
              "internalType": "uint256",
              "name": "liquidity",
              "type": "uint256"
            },
            {
              "internalType": "uint256",
              "name": "lottery",
              "type": "uint256"
            }
          ],
          "indexed": false,
          "internalType": "struct Pledge07Up.Fees",
          "name": "fees",
          "type": "tuple"
        },
        {
          "indexed": false,
          "internalType": "bool",
          "name": "lowerNotHigher",
          "type": "bool"
        }
      ],
      "name": "SetFees",
      "type": "event"
    },
    {
      "anonymous": false,
      "inputs": [
        {
          "indexed": false,
          "internalType": "uint256",
          "name": "tokenSwapped",
          "type": "uint256"
        },
        {
          "indexed": false,
          "internalType": "uint256",
          "name": "etherReceived",
          "type": "uint256"
        },
        {
          "indexed": false,
          "internalType": "uint256",
          "name": "tokenLiquified",
          "type": "uint256"
        },
        {
          "indexed": false,
          "internalType": "uint256",
          "name": "etherLiquified",
          "type": "uint256"
        }
      ],
      "name": "SwapAndLiquify",
      "type": "event"
    },
    {
      "anonymous": false,
      "inputs": [
        {
          "indexed": true,
          "internalType": "address",
          "name": "from",
          "type": "address"
        },
        {
          "indexed": true,
          "internalType": "address",
          "name": "to",
          "type": "address"
        },
        {
          "indexed": false,
          "internalType": "uint256",
          "name": "value",
          "type": "uint256"
        }
      ],
      "name": "Transfer",
      "type": "event"
    },
    {
      "inputs": [],
      "name": "DECIMALS",
      "outputs": [
        {
          "internalType": "uint8",
          "name": "",
          "type": "uint8"
        }
      ],
      "stateMutability": "view",
      "type": "function"
    },
    {
      "inputs": [],
      "name": "FEE_HUNDRED_PERCENT",
      "outputs": [
        {
          "internalType": "uint256",
          "name": "",
          "type": "uint256"
        }
      ],
      "stateMutability": "view",
      "type": "function"
    },
    {
      "inputs": [],
      "name": "FEE_MAGNIFIER",
      "outputs": [
        {
          "internalType": "uint256",
          "name": "",
          "type": "uint256"
        }
      ],
      "stateMutability": "view",
      "type": "function"
    },
    {
      "inputs": [],
      "name": "INITIAL_GENERAL_CHARITY",
      "outputs": [
        {
          "internalType": "address",
          "name": "",
          "type": "address"
        }
      ],
      "stateMutability": "view",
      "type": "function"
    },
    {
      "inputs": [],
      "name": "INITIAL_HIGHER_CHARITY_FEE",
      "outputs": [
        {
          "internalType": "uint256",
          "name": "",
          "type": "uint256"
        }
      ],
      "stateMutability": "view",
      "type": "function"
    },
    {
      "inputs": [],
      "name": "INITIAL_HIGHER_LIQUIDITY_FEE",
      "outputs": [
        {
          "internalType": "uint256",
          "name": "",
          "type": "uint256"
        }
      ],
      "stateMutability": "view",
      "type": "function"
    },
    {
      "inputs": [],
      "name": "INITIAL_HIGHER_LOTTERY_FEE",
      "outputs": [
        {
          "internalType": "uint256",
          "name": "",
          "type": "uint256"
        }
      ],
      "stateMutability": "view",
      "type": "function"
    },
    {
      "inputs": [],
      "name": "INITIAL_HIGHER_MARKETING_FEE",
      "outputs": [
        {
          "internalType": "uint256",
          "name": "",
          "type": "uint256"
        }
      ],
      "stateMutability": "view",
      "type": "function"
    },
    {
      "inputs": [],
      "name": "INITIAL_LOWER_CHARITY_FEE",
      "outputs": [
        {
          "internalType": "uint256",
          "name": "",
          "type": "uint256"
        }
      ],
      "stateMutability": "view",
      "type": "function"
    },
    {
      "inputs": [],
      "name": "INITIAL_LOWER_LIQUIDITY_FEE",
      "outputs": [
        {
          "internalType": "uint256",
          "name": "",
          "type": "uint256"
        }
      ],
      "stateMutability": "view",
      "type": "function"
    },
    {
      "inputs": [],
      "name": "INITIAL_LOWER_LOTTERY_FEE",
      "outputs": [
        {
          "internalType": "uint256",
          "name": "",
          "type": "uint256"
        }
      ],
      "stateMutability": "view",
      "type": "function"
    },
    {
      "inputs": [],
      "name": "INITIAL_LOWER_MARKETING_FEE",
      "outputs": [
        {
          "internalType": "uint256",
          "name": "",
          "type": "uint256"
        }
      ],
      "stateMutability": "view",
      "type": "function"
    },
    {
      "inputs": [],
      "name": "INITIAL_SUPPLY",
      "outputs": [
        {
          "internalType": "uint256",
          "name": "",
          "type": "uint256"
        }
      ],
      "stateMutability": "view",
      "type": "function"
    },
    {
      "inputs": [],
      "name": "LIQUIDITY_QUANTUM",
      "outputs": [
        {
          "internalType": "uint256",
          "name": "",
          "type": "uint256"
        }
      ],
      "stateMutability": "view",
      "type": "function"
    },
    {
      "inputs": [],
      "name": "MAX_TRANSFER_AMOUNT",
      "outputs": [
        {
          "internalType": "uint256",
          "name": "",
          "type": "uint256"
        }
      ],
      "stateMutability": "view",
      "type": "function"
    },
    {
      "inputs": [],
      "name": "MIN_HODL_TIME_SECONDS",
      "outputs": [
        {
          "internalType": "uint256",
          "name": "",
          "type": "uint256"
        }
      ],
      "stateMutability": "view",
      "type": "function"
    },
    {
      "inputs": [],
      "name": "__Pledge_init",
      "outputs": [],
      "stateMutability": "nonpayable",
      "type": "function"
    },
    {
      "inputs": [],
      "name": "__Pledge_init_unchained",
      "outputs": [],
      "stateMutability": "nonpayable",
      "type": "function"
    },
    {
      "inputs": [
        {
          "internalType": "address",
          "name": "holder",
          "type": "address"
        },
        {
          "internalType": "uint256",
          "name": "daysAgo",
          "type": "uint256"
        }
      ],
      "name": "___test___setLastTransferTime",
      "outputs": [],
      "stateMutability": "nonpayable",
      "type": "function"
    },
    {
      "inputs": [
        {
          "internalType": "address",
          "name": "_charityAddress",
          "type": "address"
        }
      ],
      "name": "addCharityAddress",
      "outputs": [],
      "stateMutability": "nonpayable",
      "type": "function"
    },
    {
      "inputs": [
        {
          "internalType": "address",
          "name": "owner",
          "type": "address"
        },
        {
          "internalType": "address",
          "name": "spender",
          "type": "address"
        }
      ],
      "name": "allowance",
      "outputs": [
        {
          "internalType": "uint256",
          "name": "",
          "type": "uint256"
        }
      ],
      "stateMutability": "view",
      "type": "function"
    },
    {
      "inputs": [
        {
          "internalType": "address",
          "name": "spender",
          "type": "address"
        },
        {
          "internalType": "uint256",
          "name": "amount",
          "type": "uint256"
        }
      ],
      "name": "approve",
      "outputs": [
        {
          "internalType": "bool",
          "name": "",
          "type": "bool"
        }
      ],
      "stateMutability": "nonpayable",
      "type": "function"
    },
    {
      "inputs": [],
      "name": "autoliquify",
      "outputs": [
        {
          "internalType": "bool",
          "name": "",
          "type": "bool"
        }
      ],
      "stateMutability": "view",
      "type": "function"
    },
    {
      "inputs": [
        {
          "internalType": "address",
          "name": "account",
          "type": "address"
        }
      ],
      "name": "balanceOf",
      "outputs": [
        {
          "internalType": "uint256",
          "name": "",
          "type": "uint256"
        }
      ],
      "stateMutability": "view",
      "type": "function"
    },
    {
      "inputs": [],
      "name": "beneficiaries",
      "outputs": [
        {
          "internalType": "address",
          "name": "marketing",
          "type": "address"
        },
        {
          "internalType": "address",
          "name": "charity",
          "type": "address"
        },
        {
          "internalType": "address",
          "name": "liquidity",
          "type": "address"
        },
        {
          "internalType": "address",
          "name": "lottery",
          "type": "address"
        }
      ],
      "stateMutability": "view",
      "type": "function"
    },
    {
      "inputs": [],
      "name": "beneficiariesSet",
      "outputs": [
        {
          "internalType": "bool",
          "name": "",
          "type": "bool"
        }
      ],
      "stateMutability": "view",
      "type": "function"
    },
    {
      "inputs": [
        {
          "internalType": "uint256",
          "name": "amount",
          "type": "uint256"
        }
      ],
      "name": "burn",
      "outputs": [],
      "stateMutability": "nonpayable",
      "type": "function"
    },
    {
      "inputs": [
        {
          "internalType": "address",
          "name": "account",
          "type": "address"
        },
        {
          "internalType": "uint256",
          "name": "amount",
          "type": "uint256"
        }
      ],
      "name": "burnFrom",
      "outputs": [],
      "stateMutability": "nonpayable",
      "type": "function"
    },
    {
      "inputs": [
        {
          "internalType": "address",
          "name": "_oldCharityAddress",
          "type": "address"
        },
        {
          "internalType": "address",
          "name": "_newCharityAddress",
          "type": "address"
        }
      ],
      "name": "changeCharityAddress",
      "outputs": [],
      "stateMutability": "nonpayable",
      "type": "function"
    },
    {
      "inputs": [
        {
          "internalType": "address",
          "name": "_routerAddress",
          "type": "address"
        }
      ],
      "name": "createLiquidityPool",
      "outputs": [],
      "stateMutability": "nonpayable",
      "type": "function"
    },
    {
      "inputs": [],
      "name": "decimals",
      "outputs": [
        {
          "internalType": "uint8",
          "name": "",
          "type": "uint8"
        }
      ],
      "stateMutability": "view",
      "type": "function"
    },
    {
      "inputs": [
        {
          "internalType": "address",
          "name": "spender",
          "type": "address"
        },
        {
          "internalType": "uint256",
          "name": "subtractedValue",
          "type": "uint256"
        }
      ],
      "name": "decreaseAllowance",
      "outputs": [
        {
          "internalType": "bool",
          "name": "",
          "type": "bool"
        }
      ],
      "stateMutability": "nonpayable",
      "type": "function"
    },
    {
      "inputs": [],
      "name": "feeBalances",
      "outputs": [
        {
          "components": [
            {
              "internalType": "uint256",
              "name": "marketing",
              "type": "uint256"
            },
            {
              "internalType": "uint256",
              "name": "charity",
              "type": "uint256"
            },
            {
              "internalType": "uint256",
              "name": "liquidity",
              "type": "uint256"
            },
            {
              "internalType": "uint256",
              "name": "lottery",
              "type": "uint256"
            }
          ],
          "internalType": "struct Pledge07Up.FeeBalances",
          "name": "balances",
          "type": "tuple"
        }
      ],
      "stateMutability": "view",
      "type": "function"
    },
    {
      "inputs": [
        {
          "internalType": "address",
          "name": "user",
          "type": "address"
        },
        {
          "internalType": "bool",
          "name": "free",
          "type": "bool"
        }
      ],
      "name": "freeFromFees",
      "outputs": [],
      "stateMutability": "nonpayable",
      "type": "function"
    },
    {
      "inputs": [],
      "name": "generalCharityAddress",
      "outputs": [
        {
          "internalType": "address",
          "name": "",
          "type": "address"
        }
      ],
      "stateMutability": "view",
      "type": "function"
    },
    {
      "inputs": [],
      "name": "getOwner",
      "outputs": [
        {
          "internalType": "address",
          "name": "",
          "type": "address"
        }
      ],
      "stateMutability": "view",
      "type": "function"
    },
    {
      "inputs": [],
      "name": "higherFees",
      "outputs": [
        {
          "internalType": "uint256",
          "name": "marketing",
          "type": "uint256"
        },
        {
          "internalType": "uint256",
          "name": "charity",
          "type": "uint256"
        },
        {
          "internalType": "uint256",
          "name": "liquidity",
          "type": "uint256"
        },
        {
          "internalType": "uint256",
          "name": "lottery",
          "type": "uint256"
        }
      ],
      "stateMutability": "view",
      "type": "function"
    },
    {
      "inputs": [
        {
          "internalType": "address",
          "name": "spender",
          "type": "address"
        },
        {
          "internalType": "uint256",
          "name": "addedValue",
          "type": "uint256"
        }
      ],
      "name": "increaseAllowance",
      "outputs": [
        {
          "internalType": "bool",
          "name": "",
          "type": "bool"
        }
      ],
      "stateMutability": "nonpayable",
      "type": "function"
    },
    {
      "inputs": [],
      "name": "initialHigherFees",
      "outputs": [
        {
          "internalType": "uint256",
          "name": "marketing",
          "type": "uint256"
        },
        {
          "internalType": "uint256",
          "name": "charity",
          "type": "uint256"
        },
        {
          "internalType": "uint256",
          "name": "liquidity",
          "type": "uint256"
        },
        {
          "internalType": "uint256",
          "name": "lottery",
          "type": "uint256"
        }
      ],
      "stateMutability": "view",
      "type": "function"
    },
    {
      "inputs": [],
      "name": "initialLowerFees",
      "outputs": [
        {
          "internalType": "uint256",
          "name": "marketing",
          "type": "uint256"
        },
        {
          "internalType": "uint256",
          "name": "charity",
          "type": "uint256"
        },
        {
          "internalType": "uint256",
          "name": "liquidity",
          "type": "uint256"
        },
        {
          "internalType": "uint256",
          "name": "lottery",
          "type": "uint256"
        }
      ],
      "stateMutability": "view",
      "type": "function"
    },
    {
      "inputs": [],
      "name": "initialize",
      "outputs": [],
      "stateMutability": "nonpayable",
      "type": "function"
    },
    {
      "inputs": [
        {
          "internalType": "address",
          "name": "",
          "type": "address"
        }
      ],
      "name": "isCharityAddress",
      "outputs": [
        {
          "internalType": "bool",
          "name": "",
          "type": "bool"
        }
      ],
      "stateMutability": "view",
      "type": "function"
    },
    {
      "inputs": [
        {
          "internalType": "address",
          "name": "",
          "type": "address"
        }
      ],
      "name": "isFeeFree",
      "outputs": [
        {
          "internalType": "bool",
          "name": "",
          "type": "bool"
        }
      ],
      "stateMutability": "view",
      "type": "function"
    },
    {
      "inputs": [
        {
          "internalType": "address",
          "name": "",
          "type": "address"
        }
      ],
      "name": "lastTransferTime",
      "outputs": [
        {
          "internalType": "uint256",
          "name": "",
          "type": "uint256"
        }
      ],
      "stateMutability": "view",
      "type": "function"
    },
    {
      "inputs": [],
      "name": "liquidityQuantum",
      "outputs": [
        {
          "internalType": "uint256",
          "name": "",
          "type": "uint256"
        }
      ],
      "stateMutability": "view",
      "type": "function"
    },
    {
      "inputs": [],
      "name": "liquify",
      "outputs": [],
      "stateMutability": "nonpayable",
      "type": "function"
    },
    {
      "inputs": [],
      "name": "lowerFees",
      "outputs": [
        {
          "internalType": "uint256",
          "name": "marketing",
          "type": "uint256"
        },
        {
          "internalType": "uint256",
          "name": "charity",
          "type": "uint256"
        },
        {
          "internalType": "uint256",
          "name": "liquidity",
          "type": "uint256"
        },
        {
          "internalType": "uint256",
          "name": "lottery",
          "type": "uint256"
        }
      ],
      "stateMutability": "view",
      "type": "function"
    },
    {
      "inputs": [],
      "name": "maxTransferAmount",
      "outputs": [
        {
          "internalType": "uint256",
          "name": "",
          "type": "uint256"
        }
      ],
      "stateMutability": "view",
      "type": "function"
    },
    {
      "inputs": [],
      "name": "minHoldTimeSec",
      "outputs": [
        {
          "internalType": "uint256",
          "name": "",
          "type": "uint256"
        }
      ],
      "stateMutability": "view",
      "type": "function"
    },
    {
      "inputs": [],
      "name": "name",
      "outputs": [
        {
          "internalType": "string",
          "name": "",
          "type": "string"
        }
      ],
      "stateMutability": "view",
      "type": "function"
    },
    {
      "inputs": [],
      "name": "owner",
      "outputs": [
        {
          "internalType": "address",
          "name": "",
          "type": "address"
        }
      ],
      "stateMutability": "view",
      "type": "function"
    },
    {
      "inputs": [],
      "name": "pancakePair",
      "outputs": [
        {
          "internalType": "address",
          "name": "",
          "type": "address"
        }
      ],
      "stateMutability": "view",
      "type": "function"
    },
    {
      "inputs": [],
      "name": "pancakeRouter",
      "outputs": [
        {
          "internalType": "contract IPancakeRouter02",
          "name": "",
          "type": "address"
        }
      ],
      "stateMutability": "view",
      "type": "function"
    },
    {
      "inputs": [
        {
          "internalType": "address",
          "name": "_charityAddress",
          "type": "address"
        }
      ],
      "name": "preferCharityAddress",
      "outputs": [],
      "stateMutability": "nonpayable",
      "type": "function"
    },
    {
      "inputs": [
        {
          "internalType": "address",
          "name": "",
          "type": "address"
        }
      ],
      "name": "preferredCharityAddress",
      "outputs": [
        {
          "internalType": "address",
          "name": "",
          "type": "address"
        }
      ],
      "stateMutability": "view",
      "type": "function"
    },
    {
      "inputs": [
        {
          "internalType": "address",
          "name": "_charityAddress",
          "type": "address"
        }
      ],
      "name": "removeCharityAddress",
      "outputs": [],
      "stateMutability": "nonpayable",
      "type": "function"
    },
    {
      "inputs": [],
      "name": "renounceOwnership",
      "outputs": [],
      "stateMutability": "nonpayable",
      "type": "function"
    },
    {
      "inputs": [
        {
          "internalType": "bool",
          "name": "lowerNotHigher",
          "type": "bool"
        }
      ],
      "name": "restoreFees",
      "outputs": [],
      "stateMutability": "nonpayable",
      "type": "function"
    },
    {
      "inputs": [
        {
          "components": [
            {
              "internalType": "address",
              "name": "marketing",
              "type": "address"
            },
            {
              "internalType": "address",
              "name": "charity",
              "type": "address"
            },
            {
              "internalType": "address",
              "name": "liquidity",
              "type": "address"
            },
            {
              "internalType": "address",
              "name": "lottery",
              "type": "address"
            }
          ],
          "internalType": "struct Pledge07Up.Beneficiaries",
          "name": "_beneficiaries",
          "type": "tuple"
        }
      ],
      "name": "setBeneficiaries",
      "outputs": [],
      "stateMutability": "nonpayable",
      "type": "function"
    },
    {
      "inputs": [
        {
          "components": [
            {
              "internalType": "uint256",
              "name": "marketing",
              "type": "uint256"
            },
            {
              "internalType": "uint256",
              "name": "charity",
              "type": "uint256"
            },
            {
              "internalType": "uint256",
              "name": "liquidity",
              "type": "uint256"
            },
            {
              "internalType": "uint256",
              "name": "lottery",
              "type": "uint256"
            }
          ],
          "internalType": "struct Pledge07Up.Fees",
          "name": "fees",
          "type": "tuple"
        },
        {
          "internalType": "bool",
          "name": "lowerNotHigher",
          "type": "bool"
        }
      ],
      "name": "setFees",
      "outputs": [],
      "stateMutability": "nonpayable",
      "type": "function"
    },
    {
      "inputs": [
        {
          "internalType": "address",
          "name": "_charityAddress",
          "type": "address"
        }
      ],
      "name": "setGeneralCharityAddress",
      "outputs": [],
      "stateMutability": "nonpayable",
      "type": "function"
    },
    {
      "inputs": [
        {
          "internalType": "uint256",
          "name": "_maxTransferAmount",
          "type": "uint256"
        }
      ],
      "name": "setMaxTransferAmount",
      "outputs": [],
      "stateMutability": "nonpayable",
      "type": "function"
    },
    {
      "inputs": [
        {
          "internalType": "uint256",
          "name": "_minHoldTimeSec",
          "type": "uint256"
        }
      ],
      "name": "setMinHoldTimeSec",
      "outputs": [],
      "stateMutability": "nonpayable",
      "type": "function"
    },
    {
      "inputs": [],
      "name": "symbol",
      "outputs": [
        {
          "internalType": "string",
          "name": "",
          "type": "string"
        }
      ],
      "stateMutability": "view",
      "type": "function"
    },
    {
      "inputs": [
        {
          "internalType": "bool",
          "name": "_autoLiquify",
          "type": "bool"
        }
      ],
      "name": "toLiquify",
      "outputs": [],
      "stateMutability": "nonpayable",
      "type": "function"
    },
    {
      "inputs": [],
      "name": "totalSupply",
      "outputs": [
        {
          "internalType": "uint256",
          "name": "",
          "type": "uint256"
        }
      ],
      "stateMutability": "view",
      "type": "function"
    },
    {
      "inputs": [
        {
          "internalType": "address",
          "name": "recipient",
          "type": "address"
        },
        {
          "internalType": "uint256",
          "name": "amount",
          "type": "uint256"
        }
      ],
      "name": "transfer",
      "outputs": [
        {
          "internalType": "bool",
          "name": "",
          "type": "bool"
        }
      ],
      "stateMutability": "nonpayable",
      "type": "function"
    },
    {
      "inputs": [
        {
          "internalType": "address",
          "name": "sender",
          "type": "address"
        },
        {
          "internalType": "address",
          "name": "recipient",
          "type": "address"
        },
        {
          "internalType": "uint256",
          "name": "amount",
          "type": "uint256"
        }
      ],
      "name": "transferFrom",
      "outputs": [
        {
          "internalType": "bool",
          "name": "",
          "type": "bool"
        }
      ],
      "stateMutability": "nonpayable",
      "type": "function"
    },
    {
      "inputs": [
        {
          "internalType": "address",
          "name": "newOwner",
          "type": "address"
        }
      ],
      "name": "transferOwnership",
      "outputs": [],
      "stateMutability": "nonpayable",
      "type": "function"
    },
    {
      "stateMutability": "payable",
      "type": "receive"
    }
  ],
  "bytecode": "0x608060405234801561001057600080fd5b5061422c806100206000396000f3fe6080604052600436106103fe5760003560e01c8063715018a611610213578063a9059cbb11610123578063c21ebd07116100ab578063dd62ed3e1161007a578063dd62ed3e14610a77578063f2fde38b14610a97578063f5896bc714610ab7578063fc1b311314610ad7578063ff9d6d8614610aec57610405565b8063c21ebd0714610a38578063cb4c5f1714610a4d578063cb9598c314610a62578063d9e197bb1461090f57610405565b8063b8c9d25c116100f2578063b8c9d25c146109ae578063bb5d6e56146109c3578063be1d6e7e146109d8578063be3cafd2146109f8578063c0b9cd6d14610a1857610405565b8063a9059cbb14610964578063a9e7572314610984578063ae4c438e14610767578063b21f50a11461099957610405565b8063943ffc59116101a65780639f28645d116101755780639f28645d146108cf578063a1080c12146108ef578063a41cfc931461090f578063a457c2d714610924578063a890e9cc1461094457610405565b8063943ffc591461086557806395d89b411461087a57806398da01791461088f5780639e36eda6146108af57610405565b80638129fc1c116101e25780638129fc1c14610806578063893d20e81461081b5780638bf55409146108305780638da5cb5b1461085057610405565b8063715018a6146107b157806371f94b6e1461077c578063788fd8e5146107c657806379cc6790146107e657610405565b80632793fde91161030e57806339509351116102a1578063536cf22511610270578063536cf2251461073257806364d9208e146107525780636800a3b2146107675780636e60eec71461077c57806370a082311461079157610405565b806339509351146106d2578063413b1cb5146106f257806342966c681461071257806350cb82c6146105dd57610405565b80632e7ac412116102dd5780632e7ac412146106735780632ff2e9dc146106885780632ffe1a6f1461069d578063313ce567146106bd57610405565b80632793fde91461061257806329934e28146106275780632a0897d61461063c5780632e0f26251461065157610405565b806318160ddd116103915780631bc96b9c116103605780631bc96b9c146105835780631d29bd5a146105985780631df97d64146105bd578063202a0479146105dd57806323b872dd146105f257610405565b806318160ddd14610514578063195f404a14610529578063198acaa3146105495780631a2899381461056e57610405565b806307d5707c116103cd57806307d5707c14610490578063095ea7b3146104a55780630d2d8a31146104d25780630e33fbbf146104f257610405565b8063022f9fa41461040a57806303b04c581461043557806306c66ffe1461045757806306fdde031461046e57610405565b3661040557005b600080fd5b34801561041657600080fd5b5061041f610b0c565b60405161042c9190614092565b60405180910390f35b34801561044157600080fd5b5061044a610b14565b60405161042c9190614037565b34801561046357600080fd5b5061046c610b75565b005b34801561047a57600080fd5b50610483610b7f565b60405161042c91906138f8565b34801561049c57600080fd5b5061041f610c15565b3480156104b157600080fd5b506104c56104c036600461364c565b610c1b565b60405161042c91906138ed565b3480156104de57600080fd5b5061041f6104ed36600461356b565b610c39565b3480156104fe57600080fd5b50610507610c4b565b60405161042c919061383e565b34801561052057600080fd5b5061041f610c63565b34801561053557600080fd5b5061050761054436600461356b565b610c69565b34801561055557600080fd5b5061055e610c84565b60405161042c949392919061410b565b34801561057a57600080fd5b506104c5610c93565b34801561058f57600080fd5b5061041f610c9c565b3480156105a457600080fd5b506105ad610caa565b60405161042c94939291906138a7565b3480156105c957600080fd5b5061046c6105d836600461356b565b610cce565b3480156105e957600080fd5b5061041f610d4c565b3480156105fe57600080fd5b506104c561060d3660046135db565b610d52565b34801561061e57600080fd5b5061041f610de2565b34801561063357600080fd5b5061055e610de9565b34801561064857600080fd5b5061055e610df8565b34801561065d57600080fd5b50610666610e07565b60405161042c9190614126565b34801561067f57600080fd5b50610507610e0c565b34801561069457600080fd5b5061041f610e1b565b3480156106a957600080fd5b5061046c6106b836600461361b565b610e2d565b3480156106c957600080fd5b50610666610e7a565b3480156106de57600080fd5b506104c56106ed36600461364c565b610e7f565b3480156106fe57600080fd5b5061046c61070d3660046136fb565b610eca565b34801561071e57600080fd5b5061046c61072d3660046137ae565b610faa565b34801561073e57600080fd5b5061046c61074d366004613677565b610fbe565b34801561075e57600080fd5b5061046c611010565b34801561077357600080fd5b5061041f61116d565b34801561078857600080fd5b5061041f611173565b34801561079d57600080fd5b5061041f6107ac36600461356b565b611179565b3480156107bd57600080fd5b5061046c611198565b3480156107d257600080fd5b5061046c6107e136600461356b565b6111e1565b3480156107f257600080fd5b5061046c61080136600461364c565b611229565b34801561081257600080fd5b5061046c61127c565b34801561082757600080fd5b50610507611365565b34801561083c57600080fd5b5061046c61084b3660046137ae565b611374565b34801561085c57600080fd5b506105076113b8565b34801561087157600080fd5b506104c56113cd565b34801561088657600080fd5b506104836113db565b34801561089b57600080fd5b5061046c6108aa366004613677565b61143c565b3480156108bb57600080fd5b506104c56108ca36600461356b565b61150e565b3480156108db57600080fd5b5061046c6108ea36600461364c565b611523565b3480156108fb57600080fd5b5061046c61090a36600461356b565b611549565b34801561091b57600080fd5b5061041f611591565b34801561093057600080fd5b506104c561093f36600461364c565b611596565b34801561095057600080fd5b5061046c61095f3660046137ae565b61160f565b34801561097057600080fd5b506104c561097f36600461364c565b611653565b34801561099057600080fd5b5061041f611667565b3480156109a557600080fd5b5061041f61166d565b3480156109ba57600080fd5b50610507611673565b3480156109cf57600080fd5b5061055e611682565b3480156109e457600080fd5b5061046c6109f3366004613693565b611691565b348015610a0457600080fd5b5061046c610a1336600461356b565b6117fa565b348015610a2457600080fd5b5061046c610a3336600461356b565b611b5b565b348015610a4457600080fd5b50610507611c15565b348015610a5957600080fd5b5061041f611c24565b348015610a6e57600080fd5b5061046c611c2b565b348015610a8357600080fd5b5061041f610a923660046135a3565b611c72565b348015610aa357600080fd5b5061046c610ab236600461356b565b611c9d565b348015610ac357600080fd5b506104c5610ad236600461356b565b611d0b565b348015610ae357600080fd5b5061041f611d1f565b348015610af857600080fd5b5061046c610b073660046135a3565b611d30565b6301e1855881565b610b1c6134b0565b6016546001600160a01b0390811660009081526001602081815260408084205486526017548516845282825280842054868301526018548516845282825280842054868201526019549094168352522054606082015290565b610b7d611010565b565b60048054604080516020601f6002600019610100600188161502019095169490940493840181900481028201810190925282815260609390929091830182828015610c0b5780601f10610be057610100808354040283529160200191610c0b565b820191906000526020600020905b815481529060010190602001808311610bee57829003601f168201915b5050505050905090565b601c5481565b6000610c2f610c28611d81565b8484611d85565b5060015b92915050565b60236020526000908152604090205481565b738887df2f38888117c0048eaf9e26174f2e75b8eb81565b60035490565b6021602052600090815260409020546001600160a01b031681565b600e54600f5460105460115484565b60245460ff1681565b69152d02c7e14af680000081565b6016546017546018546019546001600160a01b039384169392831692918216911684565b6001600160a01b03811615610d1d576001600160a01b038116600090815260208052604090205460ff16610d1d5760405162461bcd60e51b8152600401610d1490613b67565b60405180910390fd5b33600090815260216020526040902080546001600160a01b0319166001600160a01b0392909216919091179055565b61017781565b6000610d5f848484611e39565b6001600160a01b038416600090815260026020526040812081610d80611d81565b6001600160a01b03166001600160a01b0316815260200190815260200160002054905082811015610dc35760405162461bcd60e51b8152600401610d1490613cc8565b610dd785610dcf611d81565b858403611d85565b506001949350505050565b6298968081565b60065460075460085460095484565b600a54600b54600c54600d5484565b601281565b601f546001600160a01b031681565b6d314dc6448d9338c15b0a0000000081565b610e35611d81565b6001600160a01b0316610e466113b8565b6001600160a01b031614610e6c5760405162461bcd60e51b8152600401610d1490613d10565b610e76828261202a565b5050565b601290565b6000610c2f610e8c611d81565b848460026000610e9a611d81565b6001600160a01b03908116825260208083019390935260409182016000908120918b168152925290205401611d85565b610ed2611d81565b6001600160a01b0316610ee36113b8565b6001600160a01b031614610f095760405162461bcd60e51b8152600401610d1490613d10565b610f1282612080565b508015610f62578151600a9081556020830151600b55604080840151600c556060840151600d555160008051602061419483398151915291610f55918490614062565b60405180910390a1610e76565b81516012908155602083015160135560408084015160145560608401516015555160008051602061419483398151915291610f9e918490614062565b60405180910390a15050565b610fbb610fb5611d81565b82612178565b50565b610fc6611d81565b6001600160a01b0316610fd76113b8565b6001600160a01b031614610ffd5760405162461bcd60e51b8152600401610d1490613d10565b6024805460ff1916911515919091179055565b611018611d81565b6001600160a01b03166110296113b8565b6001600160a01b03161461104f5760405162461bcd60e51b8152600401610d1490613d10565b6040805160808082018352610177808352607d60208085018290528486018390526060948501829052600683905560078290556008839055600982905585519384018652828452830181905293820152908101919091526110b1906001610eca565b60408051608080820183526105dc8083526101f460208085018290528486018390526060948501829052600e839055600f829055601083905560118290558551938401865282845283018190529382015290810191909152611114906000610eca565b601f80546001600160a01b031916738887df2f38888117c0048eaf9e26174f2e75b8eb1790556c0c9f2c9cd04674edea40000000601a5569152d02c7e14af6800000601b556301e18558601c556024805460ff19169055565b6105dc81565b6101f481565b6001600160a01b0381166000908152600160205260409020545b919050565b6111a0611d81565b6001600160a01b03166111b16113b8565b6001600160a01b0316146111d75760405162461bcd60e51b8152600401610d1490613d10565b610b7d6000612256565b6111e9611d81565b6001600160a01b03166111fa6113b8565b6001600160a01b0316146112205760405162461bcd60e51b8152600401610d1490613d10565b610fbb816122b1565b600061123783610a92611d81565b9050818110156112595760405162461bcd60e51b8152600401610d1490613d7c565b61126d83611265611d81565b848403611d85565b6112778383612178565b505050565b600054610100900460ff1680611295575060005460ff16155b6112b15760405162461bcd60e51b8152600401610d1490613bd5565b600054610100900460ff161580156112dc576000805460ff1961ff0019909116610100171660011790555b6112e46122f7565b6040805180820182526014815273283632b233b2902aba34b634ba3c902a37b5b2b760611b60208083019190915282518084019093526003835262504f4360e81b90830152611349916d314dc6448d9338c15b0a000000006113446113b8565b612367565b611351610b75565b8015610fbb576000805461ff001916905550565b600061136f6113b8565b905090565b61137c611d81565b6001600160a01b031661138d6113b8565b6001600160a01b0316146113b35760405162461bcd60e51b8152600401610d1490613d10565b601a55565b6000546201000090046001600160a01b031690565b602454610100900460ff1681565b60058054604080516020601f6002600019610100600188161502019095169490940493840181900481028201810190925282815260609390929091830182828015610c0b5780601f10610be057610100808354040283529160200191610c0b565b611444611d81565b6001600160a01b03166114556113b8565b6001600160a01b03161461147b5760405162461bcd60e51b8152600401610d1490613d10565b600181151514156114cb57600654600a908155600754600b55600854600c55600954600d55604051600080516020614194833981519152916114be918490614062565b60405180910390a1610fbb565b600e546012908155600f5460135560105460145560115460155560405160008051602061419483398151915291611503918490614062565b60405180910390a150565b60226020526000908152604090205460ff1681565b6001600160a01b0390911660009081526023602052604090206201518090910242039055565b611551611d81565b6001600160a01b03166115626113b8565b6001600160a01b0316146115885760405162461bcd60e51b8152600401610d1490613d10565b610fbb8161240c565b607d81565b600080600260006115a5611d81565b6001600160a01b03908116825260208083019390935260409182016000908120918816815292529020549050828110156115f15760405162461bcd60e51b8152600401610d1490613fbb565b6116056115fc611d81565b85858403611d85565b5060019392505050565b611617611d81565b6001600160a01b03166116286113b8565b6001600160a01b03161461164e5760405162461bcd60e51b8152600401610d1490613d10565b601c55565b6000610c2f611660611d81565b8484611e39565b601a5481565b601b5481565b601e546001600160a01b031681565b60125460135460145460155484565b611699611d81565b6001600160a01b03166116aa6113b8565b6001600160a01b0316146116d05760405162461bcd60e51b8152600401610d1490613d10565b60408101516001600160a01b031630146116fc5760405162461bcd60e51b8152600401610d1490613e01565b601754611713906001600160a01b0316600061202a565b60165461172a906001600160a01b0316600061202a565b601954611741906001600160a01b0316600061202a565b601854611758906001600160a01b0316600061202a565b8051601680546001600160a01b03199081166001600160a01b03938416179091556020830151601780548316828516179055604084015160188054841691851691909117905560608401516019805490931693169290921790556117bd90600161202a565b80516117ca90600161202a565b6117d98160600151600161202a565b6117e88160400151600161202a565b506024805461ff001916610100179055565b611802611d81565b6001600160a01b03166118136113b8565b6001600160a01b0316146118395760405162461bcd60e51b8152600401610d1490613d10565b601d80546001600160a01b0319166001600160a01b0383169081179091556040805163c45a015560e01b8152905183929163c45a0155916004808301926020929190829003018186803b15801561188f57600080fd5b505afa1580156118a3573d6000803e3d6000fd5b505050506040513d601f19601f820116820180604052508101906118c79190613587565b6001600160a01b031663e6a4390530836001600160a01b031663ad5c46486040518163ffffffff1660e01b815260040160206040518083038186803b15801561190f57600080fd5b505afa158015611923573d6000803e3d6000fd5b505050506040513d601f19601f820116820180604052508101906119479190613587565b6040518363ffffffff1660e01b8152600401611964929190613852565b60206040518083038186803b15801561197c57600080fd5b505afa158015611990573d6000803e3d6000fd5b505050506040513d601f19601f820116820180604052508101906119b49190613587565b601e80546001600160a01b0319166001600160a01b03928316179081905516610e7657806001600160a01b031663c45a01556040518163ffffffff1660e01b815260040160206040518083038186803b158015611a1057600080fd5b505afa158015611a24573d6000803e3d6000fd5b505050506040513d601f19601f82011682018060405250810190611a489190613587565b6001600160a01b031663c9c6539630836001600160a01b031663ad5c46486040518163ffffffff1660e01b815260040160206040518083038186803b158015611a9057600080fd5b505afa158015611aa4573d6000803e3d6000fd5b505050506040513d601f19601f82011682018060405250810190611ac89190613587565b6040518363ffffffff1660e01b8152600401611ae5929190613852565b602060405180830381600087803b158015611aff57600080fd5b505af1158015611b13573d6000803e3d6000fd5b505050506040513d601f19601f82011682018060405250810190611b379190613587565b601e80546001600160a01b0319166001600160a01b03929092169190911790555050565b611b63611d81565b6001600160a01b0316611b746113b8565b6001600160a01b031614611b9a5760405162461bcd60e51b8152600401610d1490613d10565b601f546001600160a01b031615611bcd57601f546001600160a01b031660009081526020805260409020805460ff191690555b601f80546001600160a01b0319166001600160a01b03831690811790915515610fbb576001600160a01b03811660009081526020805260409020805460ff1916600117905550565b601d546001600160a01b031681565b620186a081565b611c33611d81565b6001600160a01b0316611c446113b8565b6001600160a01b031614611c6a5760405162461bcd60e51b8152600401610d1490613d10565b610b7d612455565b6001600160a01b03918216600090815260026020908152604080832093909416825291909152205490565b611ca5611d81565b6001600160a01b0316611cb66113b8565b6001600160a01b031614611cdc5760405162461bcd60e51b8152600401610d1490613d10565b6001600160a01b038116611d025760405162461bcd60e51b8152600401610d14906139fa565b610fbb81612256565b602080526000908152604090205460ff1681565b6c0c9f2c9cd04674edea4000000081565b611d38611d81565b6001600160a01b0316611d496113b8565b6001600160a01b031614611d6f5760405162461bcd60e51b8152600401610d1490613d10565b611d78826122b1565b610e768161240c565b3390565b6001600160a01b038316611dab5760405162461bcd60e51b8152600401610d1490613e6f565b6001600160a01b038216611dd15760405162461bcd60e51b8152600401610d1490613a40565b6001600160a01b0380841660008181526002602090815260408083209487168084529490915290819020849055517f8c5be1e5ebec7d5bd14f71427d1e84f3dd0314c0f7b2291e5b200ac8c7c3b92590611e2c908590614092565b60405180910390a3505050565b6001600160a01b038316611e5f5760405162461bcd60e51b8152600401610d1490613c5a565b6001600160a01b038216611e855760405162461bcd60e51b8152600401610d1490613f40565b611e90838383611277565b6001600160a01b03831660009081526001602052604090205481811015611ec95760405162461bcd60e51b8152600401610d14906139c3565b611ed38484612844565b611ef957601a54821115611ef95760405162461bcd60e51b8152600401610d1490613ab0565b6001600160a01b038416600090815260016020526040902080548390039055611f2284846128db565b611f935760245460ff610100909104161515600114611f535760405162461bcd60e51b8152600401610d1490613e38565b611f5d84846128f5565b611f678483612a31565b6001600160a01b0380861660009081526023602052604080822042908190559287168252902055909103905b6001600160a01b03808416600081815260016020526040908190208054860190555190918616906000805160206141d783398151915290611fd5908690614092565b60405180910390a360245460ff168015611ffd5750601e546001600160a01b03858116911614155b80156120175750601e546001600160a01b03848116911614155b1561202457612024612455565b50505050565b6001600160a01b03821660009081526022602052604090819020805460ff1916831515179055517fb6915003dd74438aea93a39ca67188c6704fdde74bb059bdc965fde3e3f6768c90610f9e90849084906138d2565b80516000906298968010156120a75760405162461bcd60e51b8152600401610d1490613eb3565b81516298968010156120cb5760405162461bcd60e51b8152600401610d1490613d45565b60208201516298968010156120f25760405162461bcd60e51b8152600401610d1490613c91565b60608201516298968010156121195760405162461bcd60e51b8152600401610d1490613f09565b60408201516298968010156121405760405162461bcd60e51b8152600401610d1490613b9e565b506040810151606082015160208301518351010101629896808111156111935760405162461bcd60e51b8152600401610d1490613b0e565b6001600160a01b03821661219e5760405162461bcd60e51b8152600401610d1490613dc0565b6121aa82600083611277565b6001600160a01b038216600090815260016020526040902054818110156121e35760405162461bcd60e51b8152600401610d1490613981565b6121ed8183612a82565b6001600160a01b0384166000908152600160205260409020556003546122139083612a82565b6003556040516000906001600160a01b038516906000805160206141d783398151915290612242908690614092565b60405180910390a361127783600084611277565b600080546001600160a01b038381166201000081810262010000600160b01b0319851617855560405193049190911692909183917f8be0079c531659141344cd1fd0a4f28419497f9722a3daafe3b4186f6b6457e091a35050565b6001600160a01b0381166122d75760405162461bcd60e51b8152600401610d1490613c23565b6001600160a01b031660009081526020805260409020805460ff19169055565b600054610100900460ff1680612310575060005460ff16155b61232c5760405162461bcd60e51b8152600401610d1490613bd5565b600054610100900460ff16158015612357576000805460ff1961ff0019909116610100171660011790555b61235f612aa5565b611351612b18565b600054610100900460ff1680612380575060005460ff16155b61239c5760405162461bcd60e51b8152600401610d1490613bd5565b600054610100900460ff161580156123c7576000805460ff1961ff0019909116610100171660011790555b6123cf612aa5565b6123d7612b18565b6123e18585612b88565b6123e9610b7d565b6123f38383612baf565b8015612405576000805461ff00191690555b5050505050565b6001600160a01b0381166124325760405162461bcd60e51b8152600401610d1490613c23565b6001600160a01b031660009081526020805260409020805460ff19166001179055565b60245462010000900460ff161561247e5760405162461bcd60e51b8152600401610d1490613edd565b6024805462ff00001916620100001790556018546001600160a01b0316600090815260016020526040902054601b54479190811061283457601b549050600080600080601e60009054906101000a90046001600160a01b03166001600160a01b0316630dfe16816040518163ffffffff1660e01b815260040160206040518083038186803b15801561250f57600080fd5b505afa158015612523573d6000803e3d6000fd5b505050506040513d601f19601f820116820180604052508101906125479190613587565b9050306001600160a01b03821614156125f657601e60009054906101000a90046001600160a01b03166001600160a01b0316630902f1ac6040518163ffffffff1660e01b815260040160606040518083038186803b1580156125a857600080fd5b505afa1580156125bc573d6000803e3d6000fd5b505050506040513d601f19601f820116820180604052508101906125e0919061375a565b506001600160701b03918216945016915061268e565b601e60009054906101000a90046001600160a01b03166001600160a01b0316630902f1ac6040518163ffffffff1660e01b815260040160606040518083038186803b15801561264457600080fd5b505afa158015612658573d6000803e3d6000fd5b505050506040513d601f19601f8201168201806040525081019061267c919061375a565b506001600160701b0390811694501691505b6107ce83026107cc816126b2888702623ce9c0026126ac8380612c2f565b01612c66565b03816126ba57fe5b049450505050506126ca81612db1565b30600090815260016020526040902054478284038582036126eb8282612f0d565b30600090815260016020526040902054478881101561271c5760405162461bcd60e51b8152600401610d1490613f77565b612750604051806040016040528060138152602001714b0b6b7bab73a2a37a634b8bab4b33c901e9606d1b81525089612fb8565b6127736040518060600160405280602381526020016141b4602391398589612ffd565b6127b36040518060400160405280602081526020017f096574686572496e697469616c2c206574686572416674657253776170203d208152508a87612ffd565b6127e9604051806040016040528060138152602001714b2ba3432b9103932b6b0b4b73a32b9101e9606d1b8152508a8303612fb8565b7f93efcf28fbf701a930e0ad258987a2e4f08eb3aa99f9c02029e7ba049f69405f878a8703888503888503604051612824949392919061410b565b60405180910390a1505050505050505b50506024805462ff000019169055565b600061284f83613044565b8061285e575061285e82613044565b80612899575061286c6113b8565b6001600160a01b0316836001600160a01b03161480156128995750601e546001600160a01b038381169116145b806128d45750601e546001600160a01b0384811691161480156128d457506128bf6113b8565b6001600160a01b0316826001600160a01b0316145b9392505050565b60006128e6836130c4565b8061285e575061285e826130c4565b6001600160a01b038116600090815260208052604090205460ff161515600114801561293957506001600160a01b0382811660009081526021602052604090205416155b1561297c576001600160a01b03808316600090815260216020526040902080549183166001600160a01b0319928316811790915560178054909216179055610e76565b601f54601780546001600160a01b0319166001600160a01b039283161790558281166000908152602160205260409020541680158015906129d457506001600160a01b038116600090815260208052604090205460ff165b15612a09576001600160a01b03808416600090815260216020526040902054601780546001600160a01b031916919092161790555b6017546001600160a01b03166112775760405162461bcd60e51b8152600401610d1490613b3e565b601c546001600160a01b0383166000908152602360205260408120549091429190910310612a6d57612a678383600a6016613143565b01610c33565b612a7b838360126016613143565b0192915050565b80820382811115610c335760405162461bcd60e51b8152600401610d1490613952565b600054610100900460ff1680612abe575060005460ff16155b612ada5760405162461bcd60e51b8152600401610d1490613bd5565b600054610100900460ff16158015611351576000805460ff1961ff0019909116610100171660011790558015610fbb576000805461ff001916905550565b600054610100900460ff1680612b31575060005460ff16155b612b4d5760405162461bcd60e51b8152600401610d1490613bd5565b600054610100900460ff16158015612b78576000805460ff1961ff0019909116610100171660011790555b611351612b83611d81565b612256565b8151612b9b9060049060208501906134d8565b5080516112779060059060208401906134d8565b600054610100900460ff1680612bc8575060005460ff16155b612be45760405162461bcd60e51b8152600401610d1490613bd5565b600054610100900460ff16158015612c0f576000805460ff1961ff0019909116610100171660011790555b612c19828461333d565b8015611277576000805461ff0019169055505050565b6000811580612c4a57505080820282828281612c4757fe5b04145b610c335760405162461bcd60e51b8152600401610d1490613a82565b600081612c7557506000611193565b50600181600160801b8110612c8f5760409190911b9060801c5b680100000000000000008110612caa5760209190911b9060401c5b6401000000008110612cc15760109190911b9060201c5b620100008110612cd65760089190911b9060101c5b6101008110612cea5760049190911b9060081c5b60108110612cfd5760029190911b9060041c5b60088110612d0d57600182901b91505b6001828481612d1857fe5b048301901c91506001828481612d2a57fe5b048301901c91506001828481612d3c57fe5b048301901c91506001828481612d4e57fe5b048301901c91506001828481612d6057fe5b048301901c91506001828481612d7257fe5b048301901c91506001828481612d8457fe5b048301901c91506000828481612d9657fe5b04905080831015612da75782612da9565b805b949350505050565b60408051600280825260608083018452926020830190803683370190505090503081600081518110612ddf57fe5b6001600160a01b03928316602091820292909201810191909152601d54604080516315ab88c960e31b81529051919093169263ad5c4648926004808301939192829003018186803b158015612e3357600080fd5b505afa158015612e47573d6000803e3d6000fd5b505050506040513d601f19601f82011682018060405250810190612e6b9190613587565b81600181518110612e7857fe5b6001600160a01b039283166020918202929092010152601d54612e9e9130911684611d85565b601d5460405163791ac94760e01b81526001600160a01b039091169063791ac94790612ed790859060009086903090429060040161409b565b600060405180830381600087803b158015612ef157600080fd5b505af1158015612f05573d6000803e3d6000fd5b505050505050565b601d54612f259030906001600160a01b031684611d85565b601d546001600160a01b031663f305d719823085600080612f446113b8565b426040518863ffffffff1660e01b8152600401612f669695949392919061386c565b6060604051808303818588803b158015612f7f57600080fd5b505af1158015612f93573d6000803e3d6000fd5b50505050506040513d601f19601f8201168201806040525081019061240591906137c6565b610e768282604051602401612fce92919061390b565b60408051601f198184030181529190526020810180516001600160e01b03166309710a9d60e41b1790526133f3565b6112778383836040516024016130159392919061392d565b60408051601f198184030181529190526020810180516001600160e01b031663969cdd0360e01b1790526133f3565b6016546000906001600160a01b038381169116148061307057506017546001600160a01b038381169116145b8061308857506018546001600160a01b038381169116145b806130a057506019546001600160a01b038381169116145b80610c335750506001600160a01b0316600090815260208052604090205460ff1690565b6001600160a01b03811660009081526022602052604081205460ff16806130f857506016546001600160a01b038381169116145b8061311057506017546001600160a01b038381169116145b8061312857506018546001600160a01b038381169116145b80610c335750506019546001600160a01b0390811691161490565b60008061316a620186a0613164866000015488612c2f90919063ffffffff16565b90613414565b83546001600160a01b039081166000908152600160205260409081902080548401905585549051929350811691908816906000805160206141d7833981519152906131b6908590614092565b60405180910390a380820191506131e1620186a0613164866001015488612c2f90919063ffffffff16565b600184810180546001600160a01b0390811660009081526020939093526040928390208054850190559054915192935090811691908816906000805160206141d783398151915290613234908590614092565b60405180910390a3808201915061325f620186a0613164866003015488612c2f90919063ffffffff16565b6003840180546001600160a01b03908116600090815260016020526040908190208054850190559154915192935090811691908816906000805160206141d7833981519152906132b0908590614092565b60405180910390a380820191506132db620186a0613164866002015488612c2f90919063ffffffff16565b6002840180546001600160a01b03908116600090815260016020526040908190208054850190559154915192935090811691908816906000805160206141d78339815191529061332c908590614092565b60405180910390a301949350505050565b6001600160a01b0382166133635760405162461bcd60e51b8152600401610d1490614000565b61336f60008383611277565b60035461337c9082613456565b6003556001600160a01b0382166000908152600160205260409020546133a29082613456565b6001600160a01b0383166000818152600160205260408082209390935591519091906000805160206141d7833981519152906133df908590614092565b60405180910390a3610e7660008383611277565b80516a636f6e736f6c652e6c6f67602083016000808483855afa5050505050565b60006128d483836040518060400160405280601a81526020017f536166654d6174683a206469766973696f6e206279207a65726f000000000000815250613479565b80820182811015610c335760405162461bcd60e51b8152600401610d1490613ae0565b6000818361349a5760405162461bcd60e51b8152600401610d1491906138f8565b5060008385816134a657fe5b0495945050505050565b6040518060800160405280600081526020016000815260200160008152602001600081525090565b828054600181600116156101000203166002900490600052602060002090601f016020900481019282601f1061351957805160ff1916838001178555613546565b82800160010185558215613546579182015b8281111561354657825182559160200191906001019061352b565b50613552929150613556565b5090565b5b808211156135525760008155600101613557565b60006020828403121561357c578081fd5b81356128d48161415b565b600060208284031215613598578081fd5b81516128d48161415b565b600080604083850312156135b5578081fd5b82356135c08161415b565b915060208301356135d08161415b565b809150509250929050565b6000806000606084860312156135ef578081fd5b83356135fa8161415b565b9250602084013561360a8161415b565b929592945050506040919091013590565b6000806040838503121561362d578182fd5b82356136388161415b565b9150602083013580151581146135d0578182fd5b6000806040838503121561365e578182fd5b82356136698161415b565b946020939093013593505050565b600060208284031215613688578081fd5b81356128d481614170565b6000608082840312156136a4578081fd5b6136ae6080614134565b82356136b98161415b565b815260208301356136c98161415b565b602082015260408301356136dc8161415b565b604082015260608301356136ef8161415b565b60608201529392505050565b60008082840360a081121561370e578283fd5b608081121561371b578283fd5b506137266080614134565b833581526020840135602082015260408401356040820152606084013560608201528092505060808301356135d081614170565b60008060006060848603121561376e578283fd5b83516137798161417e565b602085015190935061378a8161417e565b604085015190925063ffffffff811681146137a3578182fd5b809150509250925092565b6000602082840312156137bf578081fd5b5035919050565b6000806000606084860312156137da578283fd5b8351925060208401519150604084015190509250925092565b60008151808452815b81811015613818576020818501810151868301820152016137fc565b818111156138295782602083870101525b50601f01601f19169290920160200192915050565b6001600160a01b0391909116815260200190565b6001600160a01b0392831681529116602082015260400190565b6001600160a01b039687168152602081019590955260408501939093526060840191909152909216608082015260a081019190915260c00190565b6001600160a01b03948516815292841660208401529083166040830152909116606082015260800190565b6001600160a01b039290921682521515602082015260400190565b901515815260200190565b6000602082526128d460208301846137f3565b60006040825261391e60408301856137f3565b90508260208301529392505050565b60006060825261394060608301866137f3565b60208301949094525060400152919050565b60208082526015908201527464732d6d6174682d7375622d756e646572666c6f7760581b604082015260600190565b60208082526022908201527f45524332303a206275726e20616d6f756e7420657863656564732062616c616e604082015261636560f01b606082015260800190565b60208082526018908201527f5472616e7366657220657863656564732062616c616e63650000000000000000604082015260600190565b60208082526026908201527f4f776e61626c653a206e6577206f776e657220697320746865207a65726f206160408201526564647265737360d01b606082015260800190565b60208082526022908201527f45524332303a20617070726f766520746f20746865207a65726f206164647265604082015261737360f01b606082015260800190565b60208082526014908201527364732d6d6174682d6d756c2d6f766572666c6f7760601b604082015260600190565b602080825260169082015275151c985b9cd9995c88195e18d959591cc81b1a5b5a5d60521b604082015260600190565b60208082526014908201527364732d6d6174682d6164642d6f766572666c6f7760601b604082015260600190565b602080825260169082015275546f74616c20666565206f7574206f662072616e676560501b604082015260600190565b6020808252600f908201526e496e76616c6964206368617269747960881b604082015260600190565b60208082526019908201527f436861726974792061646472657373206e6f7420666f756e6400000000000000604082015260600190565b6020808252601a908201527f4c697175696469747920666565206f7574206f662072616e6765000000000000604082015260600190565b6020808252602e908201527f496e697469616c697a61626c653a20636f6e747261637420697320616c72656160408201526d191e481a5b9a5d1a585b1a5e995960921b606082015260800190565b60208082526017908201527f496e76616c696420636861726974792061646472657373000000000000000000604082015260600190565b6020808252601a908201527f5472616e736665722066726f6d207a65726f2061646472657373000000000000604082015260600190565b60208082526018908201527f4368617269747920666565206f7574206f662072616e67650000000000000000604082015260600190565b60208082526028908201527f45524332303a207472616e7366657220616d6f756e74206578636565647320616040820152676c6c6f77616e636560c01b606082015260800190565b6020808252818101527f4f776e61626c653a2063616c6c6572206973206e6f7420746865206f776e6572604082015260600190565b6020808252601a908201527f4d61726b6574696e6720666565206f7574206f662072616e6765000000000000604082015260600190565b60208082526024908201527f45524332303a206275726e20616d6f756e74206578636565647320616c6c6f77604082015263616e636560e01b606082015260800190565b60208082526021908201527f45524332303a206275726e2066726f6d20746865207a65726f206164647265736040820152607360f81b606082015260800190565b60208082526017908201527f57726f6e67206c6971756964697479206163636f756e74000000000000000000604082015260600190565b60208082526019908201527f4665652062656e65666963696172696573206e6f742073657400000000000000604082015260600190565b60208082526024908201527f45524332303a20617070726f76652066726f6d20746865207a65726f206164646040820152637265737360e01b606082015260800190565b60208082526010908201526f466565206f7574206f662072616e676560801b604082015260600190565b6020808252601290820152712732b9ba32b2103634b8bab4b33cb4b7339760711b604082015260600190565b60208082526018908201527f4c6f747465727920666565206f7574206f662072616e67650000000000000000604082015260600190565b60208082526018908201527f5472616e7366657220746f207a65726f20616464726573730000000000000000604082015260600190565b60208082526024908201527f094574686572206c6f737320696e2061646472657373287468697329206163636040820152631bdd5b9d60e21b606082015260800190565b60208082526025908201527f45524332303a2064656372656173656420616c6c6f77616e63652062656c6f77604082015264207a65726f60d81b606082015260800190565b6020808252601f908201527f45524332303a206d696e7420746f20746865207a65726f206164647265737300604082015260600190565b8151815260208083015190820152604080830151908201526060918201519181019190915260800190565b82548152600183015460208201526002830154604082015260039092015460608301521515608082015260a00190565b90815260200190565b600060a082018783526020878185015260a0604085015281875180845260c0860191508289019350845b818110156140ea5784516001600160a01b0316835293830193918301916001016140c5565b50506001600160a01b03969096166060850152505050608001529392505050565b93845260208401929092526040830152606082015260800190565b60ff91909116815260200190565b60405181810167ffffffffffffffff8111828210171561415357600080fd5b604052919050565b6001600160a01b0381168114610fbb57600080fd5b8015158114610fbb57600080fd5b6001600160701b0381168114610fbb57600080fdfe2553647d01733860e672e0ccc1dc4d0a9095944137d20536505911a8496acd3709203d20746f6b656e546f4164644c6971202b20746f6b656e466f7245746865723a20ddf252ad1be2c89b69c2b068fc378daa952ba7f163c4a11628f55a4df523b3efa264697066735822122074985d6c8f89d8ea10cfbe9f05e2cac20069aa5bb0a2d74ecbfa1dd261570e0264736f6c634300060c0033",
  "linkReferences": {},
  "deployedLinkReferences": {}
}